{"contracts/ScholorshipPortal.sol":{"ScholorshipPortal":{"abi":[{"inputs":[],"stateMutability":"nonpayable","type":"constructor"},{"anonymous":false,"inputs":[{"indexed":true,"internalType":"bytes32","name":"id","type":"bytes32"}],"name":"ChainlinkCancelled","type":"event"},{"anonymous":false,"inputs":[{"indexed":true,"internalType":"bytes32","name":"id","type":"bytes32"}],"name":"ChainlinkFulfilled","type":"event"},{"anonymous":false,"inputs":[{"indexed":true,"internalType":"bytes32","name":"id","type":"bytes32"}],"name":"ChainlinkRequested","type":"event"},{"anonymous":false,"inputs":[{"indexed":true,"internalType":"address","name":"from","type":"address"},{"indexed":true,"internalType":"address","name":"to","type":"address"}],"name":"OwnershipTransferRequested","type":"event"},{"anonymous":false,"inputs":[{"indexed":true,"internalType":"address","name":"from","type":"address"},{"indexed":true,"internalType":"address","name":"to","type":"address"}],"name":"OwnershipTransferred","type":"event"},{"inputs":[],"name":"acceptOwnership","outputs":[],"stateMutability":"nonpayable","type":"function"},{"inputs":[{"internalType":"bytes32","name":"_requestId","type":"bytes32"},{"internalType":"uint256","name":"_volume","type":"uint256"}],"name":"fulfill","outputs":[],"stateMutability":"nonpayable","type":"function"},{"inputs":[{"internalType":"address","name":"orgAddr","type":"address"}],"name":"getOrganizationDetail","outputs":[{"components":[{"internalType":"string","name":"name","type":"string"},{"internalType":"bool","name":"isGov","type":"bool"},{"internalType":"uint256","name":"fundSanctioned","type":"uint256"},{"internalType":"uint256","name":"fundDistributed","type":"uint256"},{"internalType":"bool","name":"isVerified","type":"bool"}],"internalType":"struct ScholorshipPortal.Organization","name":"","type":"tuple"}],"stateMutability":"view","type":"function"},{"inputs":[{"internalType":"uint256","name":"_aadhar","type":"uint256"}],"name":"getStudentDetail","outputs":[{"components":[{"internalType":"uint256","name":"aadhar","type":"uint256"},{"internalType":"uint256","name":"accNum","type":"uint256"},{"internalType":"bool","name":"receivedGovScholorship","type":"bool"},{"components":[{"internalType":"string","name":"orgName","type":"string"},{"internalType":"uint256","name":"amount","type":"uint256"},{"internalType":"string","name":"txnId","type":"string"}],"internalType":"struct ScholorshipPortal.Scholorship[]","name":"scholorships","type":"tuple[]"},{"internalType":"bool","name":"lock","type":"bool"}],"internalType":"struct ScholorshipPortal.Student","name":"","type":"tuple"}],"stateMutability":"view","type":"function"},{"inputs":[{"internalType":"uint256","name":"_aadhar","type":"uint256"}],"name":"lockProfile","outputs":[],"stateMutability":"nonpayable","type":"function"},{"inputs":[{"internalType":"string","name":"txnId","type":"string"},{"internalType":"uint256","name":"aadhar","type":"uint256"},{"internalType":"uint256","name":"accno","type":"uint256"}],"name":"makeVerificationRequest","outputs":[{"internalType":"bytes32","name":"requestId","type":"bytes32"}],"stateMutability":"nonpayable","type":"function"},{"inputs":[],"name":"owner","outputs":[{"internalType":"address","name":"","type":"address"}],"stateMutability":"view","type":"function"},{"inputs":[{"internalType":"string","name":"_name","type":"string"},{"internalType":"bool","name":"_isgov","type":"bool"},{"internalType":"uint256","name":"_fs","type":"uint256"}],"name":"registerOrganization","outputs":[],"stateMutability":"nonpayable","type":"function"},{"inputs":[{"internalType":"uint256","name":"_aadhar","type":"uint256"},{"internalType":"uint256","name":"_accNum","type":"uint256"}],"name":"registerStudent","outputs":[],"stateMutability":"nonpayable","type":"function"},{"inputs":[{"internalType":"address","name":"","type":"address"}],"name":"registeredOrganizations","outputs":[{"internalType":"string","name":"name","type":"string"},{"internalType":"bool","name":"isGov","type":"bool"},{"internalType":"uint256","name":"fundSanctioned","type":"uint256"},{"internalType":"uint256","name":"fundDistributed","type":"uint256"},{"internalType":"bool","name":"isVerified","type":"bool"}],"stateMutability":"view","type":"function"},{"inputs":[{"internalType":"uint256","name":"","type":"uint256"}],"name":"registeredStudents","outputs":[{"internalType":"uint256","name":"aadhar","type":"uint256"},{"internalType":"uint256","name":"accNum","type":"uint256"},{"internalType":"bool","name":"receivedGovScholorship","type":"bool"},{"internalType":"bool","name":"lock","type":"bool"}],"stateMutability":"view","type":"function"},{"inputs":[{"internalType":"address","name":"to","type":"address"}],"name":"transferOwnership","outputs":[],"stateMutability":"nonpayable","type":"function"},{"inputs":[{"internalType":"string","name":"","type":"string"}],"name":"txnDoneBy","outputs":[{"internalType":"string","name":"","type":"string"}],"stateMutability":"view","type":"function"},{"inputs":[{"internalType":"address","name":"orgAddr","type":"address"}],"name":"verifyOrganization","outputs":[],"stateMutability":"nonpayable","type":"function"},{"inputs":[{"internalType":"uint256","name":"studentId","type":"uint256"},{"internalType":"uint256","name":"accno","type":"uint256"},{"internalType":"string","name":"txnId","type":"string"}],"name":"verifyPayment","outputs":[],"stateMutability":"nonpayable","type":"function"},{"inputs":[],"name":"volume","outputs":[{"internalType":"uint256","name":"","type":"uint256"}],"stateMutability":"view","type":"function"},{"inputs":[],"name":"withdrawLink","outputs":[],"stateMutability":"nonpayable","type":"function"}],"evm":{"bytecode":{"linkReferences":{},"object":"608060405260016004553480156200001657600080fd5b5033806000816200006e5760405162461bcd60e51b815260206004820152601860248201527f43616e6e6f7420736574206f776e657220746f207a65726f000000000000000060448201526064015b60405180910390fd5b600680546001600160a01b0319166001600160a01b0384811691909117909155811615620000a157620000a1816200013f565b505050620000c973326c977e6efc84e512bb9c30f76e30c160ed06fb620001ec60201b60201c565b600380546001600160a01b03191673cc79157eb46f5624204f47ab42b3906caa40eab71790557f6361393833363663633733313439353762386330313263373266303561656562600955600a6200012a670de0b6b3a764000060016200020e565b6200013691906200023c565b600a556200025f565b6001600160a01b0381163314156200019a5760405162461bcd60e51b815260206004820152601760248201527f43616e6e6f74207472616e7366657220746f2073656c66000000000000000000604482015260640162000065565b600780546001600160a01b0319166001600160a01b03838116918217909255600654604051919216907fed8889f560326eb138920d842192f0eb3dd22b4f139c87a2c57538e05bae127890600090a350565b600280546001600160a01b0319166001600160a01b0392909216919091179055565b60008160001904831182151516156200023757634e487b7160e01b600052601160045260246000fd5b500290565b6000826200025a57634e487b7160e01b600052601260045260246000fd5b500490565b6128e0806200026f6000396000f3fe608060405234801561001057600080fd5b506004361061010b5760003560e01c8063721c522a116100a257806393d0bd8f1161007157806393d0bd8f1461026a578063c618a1e41461027d578063d3d2a47514610286578063e5f31715146102aa578063f2fde38b146102ca57600080fd5b8063721c522a146101db57806379ba50971461023f5780638da5cb5b146102475780638dc654a21461026257600080fd5b80634d92116e116100de5780634d92116e1461018157806350996a6514610194578063593afa1d146101b55780636d567acd146101c857600080fd5b80630fe0dc1714610110578063158a3825146101395780631b75c009146101595780634357855e1461016e575b600080fd5b61012361011e36600461200d565b6102dd565b604051610130919061207e565b60405180910390f35b61014c6101473660046121ea565b61059b565b604051610130919061221e565b61016c610167366004612231565b610640565b005b61016c61017c366004612231565b6106cf565b61016c61018f366004612253565b61079e565b6101a76101a23660046122a2565b6109cd565b604051908152602001610130565b61016c6101c33660046122fd565b610acf565b61016c6101d6366004612356565b610be5565b6102176101e936600461200d565b600b6020526000908152604090208054600182015460028301546004909301549192909160ff918216911684565b6040805194855260208501939093529015159183019190915215156060820152608001610130565b61016c610c87565b6006546040516001600160a01b039091168152602001610130565b61016c610d35565b61016c61027836600461200d565b610e79565b6101a760085481565b610299610294366004612356565b610f57565b60405161013095949392919061237f565b6102bd6102b8366004612356565b611014565b60405161013091906123b8565b61016c6102d8366004612356565b61119a565b6040805160a0810182526000808252602080830182905282840182905260608084015260808301829052338252600c905291909120805461031d9061240c565b151590506103465760405162461bcd60e51b815260040161033d90612441565b60405180910390fd5b336000908152600c602052604090206004015460ff166103785760405162461bcd60e51b815260040161033d90612484565b6000828152600b60209081526040808320815160a08101835281548152600182015481850152600282015460ff16151581840152600382018054845181870281018701909552808552919492936060860193909290879084015b8282101561053257838290600052602060002090600302016040518060600160405290816000820180546104059061240c565b80601f01602080910402602001604051908101604052809291908181526020018280546104319061240c565b801561047e5780601f106104535761010080835404028352916020019161047e565b820191906000526020600020905b81548152906001019060200180831161046157829003601f168201915b50505050508152602001600182015481526020016002820180546104a19061240c565b80601f01602080910402602001604051908101604052809291908181526020018280546104cd9061240c565b801561051a5780601f106104ef5761010080835404028352916020019161051a565b820191906000526020600020905b8154815290600101906020018083116104fd57829003601f168201915b505050505081525050815260200190600101906103d2565b505050908252506004919091015460ff16151560209091015280519091506105955760405162461bcd60e51b81526020600482015260166024820152751cdd1d59195b9d08191bd95cc81b9bdd08195e1a5cdd60521b604482015260640161033d565b92915050565b8051602081830181018051600d82529282019190930120915280546105bf9061240c565b80601f01602080910402602001604051908101604052809291908181526020018280546105eb9061240c565b80156106385780601f1061060d57610100808354040283529160200191610638565b820191906000526020600020905b81548152906001019060200180831161061b57829003601f168201915b505050505081565b6000828152600b60205260409020541561069c5760405162461bcd60e51b815260206004820152601a60248201527f73747564656e7420616c72656164792072656769737465726564000000000000604482015260640161033d565b6000828152600b60205260409020918255600182015560028101805460ff19908116909155600490910180549091169055565b60008281526005602052604090205482906001600160a01b031633146107485760405162461bcd60e51b815260206004820152602860248201527f536f75726365206d75737420626520746865206f7261636c65206f6620746865604482015267081c995c5d595cdd60c21b606482015260840161033d565b60008181526005602052604080822080546001600160a01b03191690555182917f7cc135e0cebb02c3480ae5d74d377283180a2601f8f644edf7987b009316c63a91a26008829055610799826111ab565b505050565b336000908152600c6020526040902080546107b89061240c565b151590506107d85760405162461bcd60e51b815260040161033d90612441565b336000908152600c602052604090206004015460ff1661080a5760405162461bcd60e51b815260040161033d90612484565b600d8160405161081a91906124c5565b908152602001604051809103902080546108339061240c565b15905061088e5760405162461bcd60e51b8152602060048201526024808201527f74686973207472616e73616374696f6e2068617320616c7265616479206f63636044820152631d5c995960e21b606482015260840161033d565b6000838152600b60205260409020546108f95760405162461bcd60e51b815260206004820152602760248201527f73747564656e74206973206e6f742072656769737465726564206f6e20746865604482015266081c1bdc9d185b60ca1b606482015260840161033d565b336000908152600c602052604090206001015460ff1615610991576000838152600b602052604090206002015460ff16156109915760405162461bcd60e51b815260206004820152603260248201527f73747564656e742068617320616c726561647920726563656976656420676f76604482015271065726d656e74207363686f6c6f72736869760741b606482015260840161033d565b600e80546001600160a01b03191633179055600f83905580516109bb906010906020840190611ebe565b506109c78184846109cd565b50505050565b6000806109e460095430634357855e60e01b6114d2565b90506000856109f2856114f7565b6109fb876114f7565b604051602001610a0d939291906124e1565b60408051601f19818403018152828201909152600382526219d95d60ea1b60208301529150610a3e90839083611593565b610a8d604051806040016040528060048152602001630e0c2e8d60e31b81525060405180604001604052806006815260200165185b5bdd5b9d60d21b815250846115939092919063ffffffff16565b60408051808201909152600581526474696d657360d81b6020820152600190610ab8908490836115b1565b610ac483600a546115cf565b979650505050505050565b336000908152600c602052604090208054610ae99061240c565b159050610b4d5760405162461bcd60e51b815260206004820152602c60248201527f6f7267616e697a6174696f6e207769746820746869732061646472657373206160448201526b1b1c9958591e48195e1a5cdd60a21b606482015260840161033d565b6040805160a08101825284815283151560208083019190915281830184905260006060830181905260808301819052338152600c8252929092208151805192938493610b9c9284920190611ebe565b50602082015160018201805491151560ff199283161790556040830151600283015560608301516003830155608090920151600490910180549115159190921617905550505050565b610bed6115f0565b6001600160a01b0381166000908152600c602052604090208054610c109061240c565b15159050610c605760405162461bcd60e51b815260206004820152601a60248201527f6e6f2073756368206f7267616e697a6174696f6e206578697374000000000000604482015260640161033d565b6001600160a01b03166000908152600c60205260409020600401805460ff19166001179055565b6007546001600160a01b03163314610cda5760405162461bcd60e51b815260206004820152601660248201527526bab9ba10313290383937b837b9b2b21037bbb732b960511b604482015260640161033d565b600680546001600160a01b0319808216339081179093556007805490911690556040516001600160a01b03909116919082907f8be0079c531659141344cd1fd0a4f28419497f9722a3daafe3b4186f6b6457e090600090a350565b610d3d6115f0565b6000610d516002546001600160a01b031690565b6040516370a0823160e01b81523060048201529091506001600160a01b0382169063a9059cbb90339083906370a0823190602401602060405180830381865afa158015610da2573d6000803e3d6000fd5b505050506040513d601f19601f82011682018060405250810190610dc69190612594565b6040516001600160e01b031960e085901b1681526001600160a01b03909216600483015260248201526044016020604051808303816000875af1158015610e11573d6000803e3d6000fd5b505050506040513d601f19601f82011682018060405250810190610e3591906125ad565b610e765760405162461bcd60e51b81526020600482015260126024820152712ab730b13632903a37903a3930b739b332b960711b604482015260640161033d565b50565b336000908152600c602052604090208054610e939061240c565b15159050610eb35760405162461bcd60e51b815260040161033d90612441565b336000908152600c602052604090206004015460ff16610ee55760405162461bcd60e51b815260040161033d90612484565b6000818152600b6020526040902054610f395760405162461bcd60e51b81526020600482015260166024820152751cdd1d59195b9d08191bd95cc81b9bdd08195e1a5cdd60521b604482015260640161033d565b6000908152600b60205260409020600401805460ff19166001179055565b600c60205260009081526040902080548190610f729061240c565b80601f0160208091040260200160405190810160405280929190818152602001828054610f9e9061240c565b8015610feb5780601f10610fc057610100808354040283529160200191610feb565b820191906000526020600020905b815481529060010190602001808311610fce57829003601f168201915b505050600184015460028501546003860154600490960154949560ff9283169591945092501685565b61104a6040518060a001604052806060815260200160001515815260200160008152602001600081526020016000151581525090565b6001600160a01b0382166000908152600c6020526040808220815160a0810190925280548290829061107b9061240c565b80601f01602080910402602001604051908101604052809291908181526020018280546110a79061240c565b80156110f45780601f106110c9576101008083540402835291602001916110f4565b820191906000526020600020905b8154815290600101906020018083116110d757829003601f168201915b5050509183525050600182015460ff90811615156020830152600283015460408301526003830154606083015260049092015490911615156080909101528051519091506105955760405162461bcd60e51b815260206004820152602d60248201527f6f7267616e697a6174696f6e207769746820746869732061646472657373206460448201526c1bd95cc81b9bdd08195e1a5cdd609a1b606482015260840161033d565b6111a26115f0565b610e7681611645565b600081116111f15760405162461bcd60e51b815260206004820152601360248201527234b73b30b634b2103a3930b739b0b1ba34b7b760691b604482015260640161033d565b600e546001600160a01b03166000908152600c602052604081206003810154600282015491929161122291906125e0565b9050600061123084836125e0565b10156112955760405162461bcd60e51b815260206004820152602e60248201527f796f7520646f6e7420656e6f7567682066756e64732c7468757320696e76616c60448201526d34b2103a3930b739b0b1ba34b7b760911b606482015260840161033d565b828260030160008282546112a991906125f7565b90915550506040518290600d906112c29060109061260f565b90815260200160405180910390209080546112dc9061240c565b6112e7929190611f42565b50600f546000908152600b60209081526040808320600e546001600160a01b03168452600c9092529091206001015460ff161561133c5760028101805460ff1990811660011790915560048201805490911690555b600060405180606001604052808560000180546113589061240c565b80601f01602080910402602001604051908101604052809291908181526020018280546113849061240c565b80156113d15780601f106113a6576101008083540402835291602001916113d1565b820191906000526020600020905b8154815290600101906020018083116113b457829003601f168201915b50505050508152602001868152602001601080546113ee9061240c565b80601f016020809104026020016040519081016040528092919081815260200182805461141a9061240c565b80156114675780601f1061143c57610100808354040283529160200191611467565b820191906000526020600020905b81548152906001019060200180831161144a57829003601f168201915b5050509190925250506003808401805460018101825560009182526020918290208451805195965086959290940201926114a5928492910190611ebe565b506020828101516001830155604083015180516114c89260028501920190611ebe565b5050505050505050565b6114da611fbd565b6114e2611fbd565b6114ee818686866116f0565b95945050505050565b6060600061150483611736565b60010190506000816001600160401b0381111561152357611523612148565b6040519080825280601f01601f19166020018201604052801561154d576020820181803683370190505b5090508181016020015b600019016f181899199a1a9b1b9c1cb0b131b232b360811b600a86061a8153600a85049450846115865761158b565b611557565b509392505050565b60808301516115a2908361180e565b6080830151610799908261180e565b60808301516115c0908361180e565b60808301516107999082611825565b6003546000906115e9906001600160a01b03168484611888565b9392505050565b6006546001600160a01b031633146116435760405162461bcd60e51b815260206004820152601660248201527527b7363c9031b0b63630b1363290313c9037bbb732b960511b604482015260640161033d565b565b6001600160a01b03811633141561169e5760405162461bcd60e51b815260206004820152601760248201527f43616e6e6f74207472616e7366657220746f2073656c66000000000000000000604482015260640161033d565b600780546001600160a01b0319166001600160a01b03838116918217909255600654604051919216907fed8889f560326eb138920d842192f0eb3dd22b4f139c87a2c57538e05bae127890600090a350565b6116f8611fbd565b611708856080015161010061191b565b50508284526001600160a01b03821660208501526001600160e01b031981166040850152835b949350505050565b60008072184f03e93ff9f4daa797ed6e38ed64bf6a1f0160401b83106117755772184f03e93ff9f4daa797ed6e38ed64bf6a1f0160401b830492506040015b6d04ee2d6d415b85acef810000000083106117a1576d04ee2d6d415b85acef8100000000830492506020015b662386f26fc1000083106117bf57662386f26fc10000830492506010015b6305f5e10083106117d7576305f5e100830492506008015b61271083106117eb57612710830492506004015b606483106117fd576064830492506002015b600a83106105955760010192915050565b61181b8260038351611980565b6107998282611a87565b67ffffffffffffffff19811215611844576118408282611aae565b5050565b6001600160401b0381131561185d576118408282611af0565b600081126118715761184082600083611980565b611840826001611883846000196126ab565b611980565b6004546000906118998160016125f7565b600455835160408086015160808701515191516000936320214ca360e11b936118d19386938493923092918a916001916024016126ea565b60408051601f198184030181529190526020810180516001600160e01b03166001600160e01b031990931692909217909152905061191186838684611b13565b9695505050505050565b60408051808201909152606081526000602082015261193b602083612752565b156119635761194b602083612752565b6119569060206125e0565b61196090836125f7565b91505b506020828101829052604080518085526000815290920101905290565b6017816001600160401b0316116119a4576109c78360e0600585901b168317611c71565b60ff816001600160401b0316116119e0576119ca836018611fe0600586901b1617611c71565b506109c7836001600160401b0383166001611c96565b61ffff816001600160401b031611611a1d57611a07836019611fe0600586901b1617611c71565b506109c7836001600160401b0383166002611c96565b63ffffffff816001600160401b031611611a5c57611a4683601a611fe0600586901b1617611c71565b506109c7836001600160401b0383166004611c96565b611a7183601b611fe0600586901b1617611c71565b506109c7836001600160401b0383166008611c96565b6040805180820190915260608152600060208201526115e983846000015151848551611cbc565b611ab98260c3611c71565b5061184082611aca836000196126ab565b604051602001611adc91815260200190565b604051602081830303815290604052611da6565b611afb8260c2611c71565b506118408282604051602001611adc91815260200190565b6040516bffffffffffffffffffffffff193060601b1660208201526034810184905260009060540160408051808303601f1901815282825280516020918201206000818152600590925291812080546001600160a01b0319166001600160a01b038a1617905590925082917fb5e6e01e79f91267dc17b4e6314d5d4d03593d2ceee0fbb452b750bd70ea5af99190a2600254604051630200057560e51b81526001600160a01b0390911690634000aea090611bd690889087908790600401612774565b6020604051808303816000875af1158015611bf5573d6000803e3d6000fd5b505050506040513d601f19601f82011682018060405250810190611c1991906125ad565b61172e5760405162461bcd60e51b815260206004820152602360248201527f756e61626c6520746f207472616e73666572416e6443616c6c20746f206f7261604482015262636c6560e81b606482015260840161033d565b6040805180820190915260608152600060208201526115e98384600001515184611db3565b60408051808201909152606081526000602082015261172e848560000151518585611e0f565b6040805180820190915260608152600060208201528251821115611cdf57600080fd5b6020850151611cee83866125f7565b1115611d2157611d2185611d1187602001518786611d0c91906125f7565b611e90565b611d1c90600261279b565b611ea7565b600080865180518760208301019350808887011115611d405787860182525b505050602084015b60208410611d805780518252611d5f6020836125f7565b9150611d6c6020826125f7565b9050611d796020856125e0565b9350611d48565b51815160001960208690036101000a019081169019919091161790525083949350505050565b61181b8260028351611980565b60408051808201909152606081526000602082015283602001518310611de857611de88485602001516002611d1c919061279b565b835180516020858301018481535080851415611e05576001810182525b5093949350505050565b6040805180820190915260608152600060208201526020850151611e3385846125f7565b1115611e4757611e4785611d1186856125f7565b60006001611e578461010061289e565b611e6191906125e0565b9050855183868201018583198251161781525080518487011115611e855783860181525b509495945050505050565b600081831115611ea1575081610595565b50919050565b8151611eb3838361191b565b506109c78382611a87565b828054611eca9061240c565b90600052602060002090601f016020900481019282611eec5760008555611f32565b82601f10611f0557805160ff1916838001178555611f32565b82800160010185558215611f32579182015b82811115611f32578251825591602001919060010190611f17565b50611f3e929150611ff8565b5090565b828054611f4e9061240c565b90600052602060002090601f016020900481019282611f705760008555611f32565b82601f10611f815780548555611f32565b82800160010185558215611f3257600052602060002091601f016020900482015b82811115611f32578254825591600101919060010190611fa2565b6040805160a0810182526000808252602080830182905282840182905260608084018390528451808601909552845283015290608082015290565b5b80821115611f3e5760008155600101611ff9565b60006020828403121561201f57600080fd5b5035919050565b60005b83811015612041578181015183820152602001612029565b838111156109c75750506000910152565b6000815180845261206a816020860160208601612026565b601f01601f19169290920160200192915050565b6000602080835260c08301845182850152818501516040818187015280870151915060608215158188015280880151925060a0608088015283835180865260e08901915060e08160051b8a01019550868501945060005b8181101561212d5789870360df19018352855180518589526120f9868a0182612052565b828b01518a8c015291870151898303888b01529190506121198183612052565b9850505094870194918701916001016120d5565b5050505050506080850151915061172e60a085018315159052565b634e487b7160e01b600052604160045260246000fd5b600082601f83011261216f57600080fd5b81356001600160401b038082111561218957612189612148565b604051601f8301601f19908116603f011681019082821181831017156121b1576121b1612148565b816040528381528660208588010111156121ca57600080fd5b836020870160208301376000602085830101528094505050505092915050565b6000602082840312156121fc57600080fd5b81356001600160401b0381111561221257600080fd5b61172e8482850161215e565b6020815260006115e96020830184612052565b6000806040838503121561224457600080fd5b50508035926020909101359150565b60008060006060848603121561226857600080fd5b833592506020840135915060408401356001600160401b0381111561228c57600080fd5b6122988682870161215e565b9150509250925092565b6000806000606084860312156122b757600080fd5b83356001600160401b038111156122cd57600080fd5b6122d98682870161215e565b9660208601359650604090950135949350505050565b8015158114610e7657600080fd5b60008060006060848603121561231257600080fd5b83356001600160401b0381111561232857600080fd5b6123348682870161215e565b9350506020840135612345816122ef565b929592945050506040919091013590565b60006020828403121561236857600080fd5b81356001600160a01b03811681146115e957600080fd5b60a08152600061239260a0830188612052565b951515602083015250604081019390935260608301919091521515608090910152919050565b602081526000825160a060208401526123d460c0840182612052565b905060208401511515604084015260408401516060840152606084015160808401526080840151151560a08401528091505092915050565b600181811c9082168061242057607f821691505b60208210811415611ea157634e487b7160e01b600052602260045260246000fd5b60208082526023908201527f796f7572206f7267616e697a6174696f6e206973206e6f7420726567697374656040820152621c995960ea1b606082015260800190565b60208082526021908201527f796f7572206f7267616e697a6174696f6e206973206e6f7420766572696669656040820152601960fa1b606082015260800190565b600082516124d7818460208701612026565b9190910192915050565b7f68747470733a2f2f7472616e73616374696f6e2d7665726966792e6f6e72656e8152726465722e636f6d2f7665726966793f74786e3d60681b602082015260008451612535816033850160208901612026565b68266163636f756e743d60b81b603391840191820152845161255e81603c840160208901612026565b67266161646861723d60c01b603c92909101918201528351612587816044840160208801612026565b0160440195945050505050565b6000602082840312156125a657600080fd5b5051919050565b6000602082840312156125bf57600080fd5b81516115e9816122ef565b634e487b7160e01b600052601160045260246000fd5b6000828210156125f2576125f26125ca565b500390565b6000821982111561260a5761260a6125ca565b500190565b600080835481600182811c91508083168061262b57607f831692505b602080841082141561264b57634e487b7160e01b86526022600452602486fd5b81801561265f57600181146126705761269d565b60ff1986168952848901965061269d565b60008a81526020902060005b868110156126955781548b82015290850190830161267c565b505084890196505b509498975050505050505050565b60008083128015600160ff1b8501841216156126c9576126c96125ca565b6001600160ff1b03840183138116156126e4576126e46125ca565b50500390565b6001600160a01b0389811682526020820189905260408201889052861660608201526001600160e01b03198516608082015260a0810184905260c0810183905261010060e0820181905260009061274383820185612052565b9b9a5050505050505050505050565b60008261276f57634e487b7160e01b600052601260045260246000fd5b500690565b60018060a01b03841681528260208201526060604082015260006114ee6060830184612052565b60008160001904831182151516156127b5576127b56125ca565b500290565b600181815b808511156127f55781600019048211156127db576127db6125ca565b808516156127e857918102915b93841c93908002906127bf565b509250929050565b60008261280c57506001610595565b8161281957506000610595565b816001811461282f576002811461283957612855565b6001915050610595565b60ff84111561284a5761284a6125ca565b50506001821b610595565b5060208310610133831016604e8410600b8410161715612878575081810a610595565b61288283836127ba565b8060001904821115612896576128966125ca565b029392505050565b60006115e983836127fd56fea2646970667358221220c802b7afe867140cc5a7e9b641ae86430dd74464d0c03c93ed79c2c023c307d164736f6c634300080c0033","opcodes":"PUSH1 0x80 PUSH1 0x40 MSTORE PUSH1 0x1 PUSH1 0x4 SSTORE CALLVALUE DUP1 ISZERO PUSH3 0x16 JUMPI PUSH1 0x0 DUP1 REVERT JUMPDEST POP CALLER DUP1 PUSH1 0x0 DUP2 PUSH3 0x6E JUMPI PUSH1 0x40 MLOAD PUSH3 0x461BCD PUSH1 0xE5 SHL DUP2 MSTORE PUSH1 0x20 PUSH1 0x4 DUP3 ADD MSTORE PUSH1 0x18 PUSH1 0x24 DUP3 ADD MSTORE PUSH32 0x43616E6E6F7420736574206F776E657220746F207A65726F0000000000000000 PUSH1 0x44 DUP3 ADD MSTORE PUSH1 0x64 ADD JUMPDEST PUSH1 0x40 MLOAD DUP1 SWAP2 SUB SWAP1 REVERT JUMPDEST PUSH1 0x6 DUP1 SLOAD PUSH1 0x1 PUSH1 0x1 PUSH1 0xA0 SHL SUB NOT AND PUSH1 0x1 PUSH1 0x1 PUSH1 0xA0 SHL SUB DUP5 DUP2 AND SWAP2 SWAP1 SWAP2 OR SWAP1 SWAP2 SSTORE DUP2 AND ISZERO PUSH3 0xA1 JUMPI PUSH3 0xA1 DUP2 PUSH3 0x13F JUMP JUMPDEST POP POP POP PUSH3 0xC9 PUSH20 0x326C977E6EFC84E512BB9C30F76E30C160ED06FB PUSH3 0x1EC PUSH1 0x20 SHL PUSH1 0x20 SHR JUMP JUMPDEST PUSH1 0x3 DUP1 SLOAD PUSH1 0x1 PUSH1 0x1 PUSH1 0xA0 SHL SUB NOT AND PUSH20 0xCC79157EB46F5624204F47AB42B3906CAA40EAB7 OR SWAP1 SSTORE PUSH32 0x6361393833363663633733313439353762386330313263373266303561656562 PUSH1 0x9 SSTORE PUSH1 0xA PUSH3 0x12A PUSH8 0xDE0B6B3A7640000 PUSH1 0x1 PUSH3 0x20E JUMP JUMPDEST PUSH3 0x136 SWAP2 SWAP1 PUSH3 0x23C JUMP JUMPDEST PUSH1 0xA SSTORE PUSH3 0x25F JUMP JUMPDEST PUSH1 0x1 PUSH1 0x1 PUSH1 0xA0 SHL SUB DUP2 AND CALLER EQ ISZERO PUSH3 0x19A JUMPI PUSH1 0x40 MLOAD PUSH3 0x461BCD PUSH1 0xE5 SHL DUP2 MSTORE PUSH1 0x20 PUSH1 0x4 DUP3 ADD MSTORE PUSH1 0x17 PUSH1 0x24 DUP3 ADD MSTORE PUSH32 0x43616E6E6F74207472616E7366657220746F2073656C66000000000000000000 PUSH1 0x44 DUP3 ADD MSTORE PUSH1 0x64 ADD PUSH3 0x65 JUMP JUMPDEST PUSH1 0x7 DUP1 SLOAD PUSH1 0x1 PUSH1 0x1 PUSH1 0xA0 SHL SUB NOT AND PUSH1 0x1 PUSH1 0x1 PUSH1 0xA0 SHL SUB DUP4 DUP2 AND SWAP2 DUP3 OR SWAP1 SWAP3 SSTORE PUSH1 0x6 SLOAD PUSH1 0x40 MLOAD SWAP2 SWAP3 AND SWAP1 PUSH32 0xED8889F560326EB138920D842192F0EB3DD22B4F139C87A2C57538E05BAE1278 SWAP1 PUSH1 0x0 SWAP1 LOG3 POP JUMP JUMPDEST PUSH1 0x2 DUP1 SLOAD PUSH1 0x1 PUSH1 0x1 PUSH1 0xA0 SHL SUB NOT AND PUSH1 0x1 PUSH1 0x1 PUSH1 0xA0 SHL SUB SWAP3 SWAP1 SWAP3 AND SWAP2 SWAP1 SWAP2 OR SWAP1 SSTORE JUMP JUMPDEST PUSH1 0x0 DUP2 PUSH1 0x0 NOT DIV DUP4 GT DUP3 ISZERO ISZERO AND ISZERO PUSH3 0x237 JUMPI PUSH4 0x4E487B71 PUSH1 0xE0 SHL PUSH1 0x0 MSTORE PUSH1 0x11 PUSH1 0x4 MSTORE PUSH1 0x24 PUSH1 0x0 REVERT JUMPDEST POP MUL SWAP1 JUMP JUMPDEST PUSH1 0x0 DUP3 PUSH3 0x25A JUMPI PUSH4 0x4E487B71 PUSH1 0xE0 SHL PUSH1 0x0 MSTORE PUSH1 0x12 PUSH1 0x4 MSTORE PUSH1 0x24 PUSH1 0x0 REVERT JUMPDEST POP DIV SWAP1 JUMP JUMPDEST PUSH2 0x28E0 DUP1 PUSH3 0x26F PUSH1 0x0 CODECOPY PUSH1 0x0 RETURN INVALID PUSH1 0x80 PUSH1 0x40 MSTORE CALLVALUE DUP1 ISZERO PUSH2 0x10 JUMPI PUSH1 0x0 DUP1 REVERT JUMPDEST POP PUSH1 0x4 CALLDATASIZE LT PUSH2 0x10B JUMPI PUSH1 0x0 CALLDATALOAD PUSH1 0xE0 SHR DUP1 PUSH4 0x721C522A GT PUSH2 0xA2 JUMPI DUP1 PUSH4 0x93D0BD8F GT PUSH2 0x71 JUMPI DUP1 PUSH4 0x93D0BD8F EQ PUSH2 0x26A JUMPI DUP1 PUSH4 0xC618A1E4 EQ PUSH2 0x27D JUMPI DUP1 PUSH4 0xD3D2A475 EQ PUSH2 0x286 JUMPI DUP1 PUSH4 0xE5F31715 EQ PUSH2 0x2AA JUMPI DUP1 PUSH4 0xF2FDE38B EQ PUSH2 0x2CA JUMPI PUSH1 0x0 DUP1 REVERT JUMPDEST DUP1 PUSH4 0x721C522A EQ PUSH2 0x1DB JUMPI DUP1 PUSH4 0x79BA5097 EQ PUSH2 0x23F JUMPI DUP1 PUSH4 0x8DA5CB5B EQ PUSH2 0x247 JUMPI DUP1 PUSH4 0x8DC654A2 EQ PUSH2 0x262 JUMPI PUSH1 0x0 DUP1 REVERT JUMPDEST DUP1 PUSH4 0x4D92116E GT PUSH2 0xDE JUMPI DUP1 PUSH4 0x4D92116E EQ PUSH2 0x181 JUMPI DUP1 PUSH4 0x50996A65 EQ PUSH2 0x194 JUMPI DUP1 PUSH4 0x593AFA1D EQ PUSH2 0x1B5 JUMPI DUP1 PUSH4 0x6D567ACD EQ PUSH2 0x1C8 JUMPI PUSH1 0x0 DUP1 REVERT JUMPDEST DUP1 PUSH4 0xFE0DC17 EQ PUSH2 0x110 JUMPI DUP1 PUSH4 0x158A3825 EQ PUSH2 0x139 JUMPI DUP1 PUSH4 0x1B75C009 EQ PUSH2 0x159 JUMPI DUP1 PUSH4 0x4357855E EQ PUSH2 0x16E JUMPI JUMPDEST PUSH1 0x0 DUP1 REVERT JUMPDEST PUSH2 0x123 PUSH2 0x11E CALLDATASIZE PUSH1 0x4 PUSH2 0x200D JUMP JUMPDEST PUSH2 0x2DD JUMP JUMPDEST PUSH1 0x40 MLOAD PUSH2 0x130 SWAP2 SWAP1 PUSH2 0x207E JUMP JUMPDEST PUSH1 0x40 MLOAD DUP1 SWAP2 SUB SWAP1 RETURN JUMPDEST PUSH2 0x14C PUSH2 0x147 CALLDATASIZE PUSH1 0x4 PUSH2 0x21EA JUMP JUMPDEST PUSH2 0x59B JUMP JUMPDEST PUSH1 0x40 MLOAD PUSH2 0x130 SWAP2 SWAP1 PUSH2 0x221E JUMP JUMPDEST PUSH2 0x16C PUSH2 0x167 CALLDATASIZE PUSH1 0x4 PUSH2 0x2231 JUMP JUMPDEST PUSH2 0x640 JUMP JUMPDEST STOP JUMPDEST PUSH2 0x16C PUSH2 0x17C CALLDATASIZE PUSH1 0x4 PUSH2 0x2231 JUMP JUMPDEST PUSH2 0x6CF JUMP JUMPDEST PUSH2 0x16C PUSH2 0x18F CALLDATASIZE PUSH1 0x4 PUSH2 0x2253 JUMP JUMPDEST PUSH2 0x79E JUMP JUMPDEST PUSH2 0x1A7 PUSH2 0x1A2 CALLDATASIZE PUSH1 0x4 PUSH2 0x22A2 JUMP JUMPDEST PUSH2 0x9CD JUMP JUMPDEST PUSH1 0x40 MLOAD SWAP1 DUP2 MSTORE PUSH1 0x20 ADD PUSH2 0x130 JUMP JUMPDEST PUSH2 0x16C PUSH2 0x1C3 CALLDATASIZE PUSH1 0x4 PUSH2 0x22FD JUMP JUMPDEST PUSH2 0xACF JUMP JUMPDEST PUSH2 0x16C PUSH2 0x1D6 CALLDATASIZE PUSH1 0x4 PUSH2 0x2356 JUMP JUMPDEST PUSH2 0xBE5 JUMP JUMPDEST PUSH2 0x217 PUSH2 0x1E9 CALLDATASIZE PUSH1 0x4 PUSH2 0x200D JUMP JUMPDEST PUSH1 0xB PUSH1 0x20 MSTORE PUSH1 0x0 SWAP1 DUP2 MSTORE PUSH1 0x40 SWAP1 KECCAK256 DUP1 SLOAD PUSH1 0x1 DUP3 ADD SLOAD PUSH1 0x2 DUP4 ADD SLOAD PUSH1 0x4 SWAP1 SWAP4 ADD SLOAD SWAP2 SWAP3 SWAP1 SWAP2 PUSH1 0xFF SWAP2 DUP3 AND SWAP2 AND DUP5 JUMP JUMPDEST PUSH1 0x40 DUP1 MLOAD SWAP5 DUP6 MSTORE PUSH1 0x20 DUP6 ADD SWAP4 SWAP1 SWAP4 MSTORE SWAP1 ISZERO ISZERO SWAP2 DUP4 ADD SWAP2 SWAP1 SWAP2 MSTORE ISZERO ISZERO PUSH1 0x60 DUP3 ADD MSTORE PUSH1 0x80 ADD PUSH2 0x130 JUMP JUMPDEST PUSH2 0x16C PUSH2 0xC87 JUMP JUMPDEST PUSH1 0x6 SLOAD PUSH1 0x40 MLOAD PUSH1 0x1 PUSH1 0x1 PUSH1 0xA0 SHL SUB SWAP1 SWAP2 AND DUP2 MSTORE PUSH1 0x20 ADD PUSH2 0x130 JUMP JUMPDEST PUSH2 0x16C PUSH2 0xD35 JUMP JUMPDEST PUSH2 0x16C PUSH2 0x278 CALLDATASIZE PUSH1 0x4 PUSH2 0x200D JUMP JUMPDEST PUSH2 0xE79 JUMP JUMPDEST PUSH2 0x1A7 PUSH1 0x8 SLOAD DUP2 JUMP JUMPDEST PUSH2 0x299 PUSH2 0x294 CALLDATASIZE PUSH1 0x4 PUSH2 0x2356 JUMP JUMPDEST PUSH2 0xF57 JUMP JUMPDEST PUSH1 0x40 MLOAD PUSH2 0x130 SWAP6 SWAP5 SWAP4 SWAP3 SWAP2 SWAP1 PUSH2 0x237F JUMP JUMPDEST PUSH2 0x2BD PUSH2 0x2B8 CALLDATASIZE PUSH1 0x4 PUSH2 0x2356 JUMP JUMPDEST PUSH2 0x1014 JUMP JUMPDEST PUSH1 0x40 MLOAD PUSH2 0x130 SWAP2 SWAP1 PUSH2 0x23B8 JUMP JUMPDEST PUSH2 0x16C PUSH2 0x2D8 CALLDATASIZE PUSH1 0x4 PUSH2 0x2356 JUMP JUMPDEST PUSH2 0x119A JUMP JUMPDEST PUSH1 0x40 DUP1 MLOAD PUSH1 0xA0 DUP2 ADD DUP3 MSTORE PUSH1 0x0 DUP1 DUP3 MSTORE PUSH1 0x20 DUP1 DUP4 ADD DUP3 SWAP1 MSTORE DUP3 DUP5 ADD DUP3 SWAP1 MSTORE PUSH1 0x60 DUP1 DUP5 ADD MSTORE PUSH1 0x80 DUP4 ADD DUP3 SWAP1 MSTORE CALLER DUP3 MSTORE PUSH1 0xC SWAP1 MSTORE SWAP2 SWAP1 SWAP2 KECCAK256 DUP1 SLOAD PUSH2 0x31D SWAP1 PUSH2 0x240C JUMP JUMPDEST ISZERO ISZERO SWAP1 POP PUSH2 0x346 JUMPI PUSH1 0x40 MLOAD PUSH3 0x461BCD PUSH1 0xE5 SHL DUP2 MSTORE PUSH1 0x4 ADD PUSH2 0x33D SWAP1 PUSH2 0x2441 JUMP JUMPDEST PUSH1 0x40 MLOAD DUP1 SWAP2 SUB SWAP1 REVERT JUMPDEST CALLER PUSH1 0x0 SWAP1 DUP2 MSTORE PUSH1 0xC PUSH1 0x20 MSTORE PUSH1 0x40 SWAP1 KECCAK256 PUSH1 0x4 ADD SLOAD PUSH1 0xFF AND PUSH2 0x378 JUMPI PUSH1 0x40 MLOAD PUSH3 0x461BCD PUSH1 0xE5 SHL DUP2 MSTORE PUSH1 0x4 ADD PUSH2 0x33D SWAP1 PUSH2 0x2484 JUMP JUMPDEST PUSH1 0x0 DUP3 DUP2 MSTORE PUSH1 0xB PUSH1 0x20 SWAP1 DUP2 MSTORE PUSH1 0x40 DUP1 DUP4 KECCAK256 DUP2 MLOAD PUSH1 0xA0 DUP2 ADD DUP4 MSTORE DUP2 SLOAD DUP2 MSTORE PUSH1 0x1 DUP3 ADD SLOAD DUP2 DUP6 ADD MSTORE PUSH1 0x2 DUP3 ADD SLOAD PUSH1 0xFF AND ISZERO ISZERO DUP2 DUP5 ADD MSTORE PUSH1 0x3 DUP3 ADD DUP1 SLOAD DUP5 MLOAD DUP2 DUP8 MUL DUP2 ADD DUP8 ADD SWAP1 SWAP6 MSTORE DUP1 DUP6 MSTORE SWAP2 SWAP5 SWAP3 SWAP4 PUSH1 0x60 DUP7 ADD SWAP4 SWAP1 SWAP3 SWAP1 DUP8 SWAP1 DUP5 ADD JUMPDEST DUP3 DUP3 LT ISZERO PUSH2 0x532 JUMPI DUP4 DUP3 SWAP1 PUSH1 0x0 MSTORE PUSH1 0x20 PUSH1 0x0 KECCAK256 SWAP1 PUSH1 0x3 MUL ADD PUSH1 0x40 MLOAD DUP1 PUSH1 0x60 ADD PUSH1 0x40 MSTORE SWAP1 DUP2 PUSH1 0x0 DUP3 ADD DUP1 SLOAD PUSH2 0x405 SWAP1 PUSH2 0x240C JUMP JUMPDEST DUP1 PUSH1 0x1F ADD PUSH1 0x20 DUP1 SWAP2 DIV MUL PUSH1 0x20 ADD PUSH1 0x40 MLOAD SWAP1 DUP2 ADD PUSH1 0x40 MSTORE DUP1 SWAP3 SWAP2 SWAP1 DUP2 DUP2 MSTORE PUSH1 0x20 ADD DUP3 DUP1 SLOAD PUSH2 0x431 SWAP1 PUSH2 0x240C JUMP JUMPDEST DUP1 ISZERO PUSH2 0x47E JUMPI DUP1 PUSH1 0x1F LT PUSH2 0x453 JUMPI PUSH2 0x100 DUP1 DUP4 SLOAD DIV MUL DUP4 MSTORE SWAP2 PUSH1 0x20 ADD SWAP2 PUSH2 0x47E JUMP JUMPDEST DUP3 ADD SWAP2 SWAP1 PUSH1 0x0 MSTORE PUSH1 0x20 PUSH1 0x0 KECCAK256 SWAP1 JUMPDEST DUP2 SLOAD DUP2 MSTORE SWAP1 PUSH1 0x1 ADD SWAP1 PUSH1 0x20 ADD DUP1 DUP4 GT PUSH2 0x461 JUMPI DUP3 SWAP1 SUB PUSH1 0x1F AND DUP3 ADD SWAP2 JUMPDEST POP POP POP POP POP DUP2 MSTORE PUSH1 0x20 ADD PUSH1 0x1 DUP3 ADD SLOAD DUP2 MSTORE PUSH1 0x20 ADD PUSH1 0x2 DUP3 ADD DUP1 SLOAD PUSH2 0x4A1 SWAP1 PUSH2 0x240C JUMP JUMPDEST DUP1 PUSH1 0x1F ADD PUSH1 0x20 DUP1 SWAP2 DIV MUL PUSH1 0x20 ADD PUSH1 0x40 MLOAD SWAP1 DUP2 ADD PUSH1 0x40 MSTORE DUP1 SWAP3 SWAP2 SWAP1 DUP2 DUP2 MSTORE PUSH1 0x20 ADD DUP3 DUP1 SLOAD PUSH2 0x4CD SWAP1 PUSH2 0x240C JUMP JUMPDEST DUP1 ISZERO PUSH2 0x51A JUMPI DUP1 PUSH1 0x1F LT PUSH2 0x4EF JUMPI PUSH2 0x100 DUP1 DUP4 SLOAD DIV MUL DUP4 MSTORE SWAP2 PUSH1 0x20 ADD SWAP2 PUSH2 0x51A JUMP JUMPDEST DUP3 ADD SWAP2 SWAP1 PUSH1 0x0 MSTORE PUSH1 0x20 PUSH1 0x0 KECCAK256 SWAP1 JUMPDEST DUP2 SLOAD DUP2 MSTORE SWAP1 PUSH1 0x1 ADD SWAP1 PUSH1 0x20 ADD DUP1 DUP4 GT PUSH2 0x4FD JUMPI DUP3 SWAP1 SUB PUSH1 0x1F AND DUP3 ADD SWAP2 JUMPDEST POP POP POP POP POP DUP2 MSTORE POP POP DUP2 MSTORE PUSH1 0x20 ADD SWAP1 PUSH1 0x1 ADD SWAP1 PUSH2 0x3D2 JUMP JUMPDEST POP POP POP SWAP1 DUP3 MSTORE POP PUSH1 0x4 SWAP2 SWAP1 SWAP2 ADD SLOAD PUSH1 0xFF AND ISZERO ISZERO PUSH1 0x20 SWAP1 SWAP2 ADD MSTORE DUP1 MLOAD SWAP1 SWAP2 POP PUSH2 0x595 JUMPI PUSH1 0x40 MLOAD PUSH3 0x461BCD PUSH1 0xE5 SHL DUP2 MSTORE PUSH1 0x20 PUSH1 0x4 DUP3 ADD MSTORE PUSH1 0x16 PUSH1 0x24 DUP3 ADD MSTORE PUSH22 0x1CDD1D59195B9D08191BD95CC81B9BDD08195E1A5CDD PUSH1 0x52 SHL PUSH1 0x44 DUP3 ADD MSTORE PUSH1 0x64 ADD PUSH2 0x33D JUMP JUMPDEST SWAP3 SWAP2 POP POP JUMP JUMPDEST DUP1 MLOAD PUSH1 0x20 DUP2 DUP4 ADD DUP2 ADD DUP1 MLOAD PUSH1 0xD DUP3 MSTORE SWAP3 DUP3 ADD SWAP2 SWAP1 SWAP4 ADD KECCAK256 SWAP2 MSTORE DUP1 SLOAD PUSH2 0x5BF SWAP1 PUSH2 0x240C JUMP JUMPDEST DUP1 PUSH1 0x1F ADD PUSH1 0x20 DUP1 SWAP2 DIV MUL PUSH1 0x20 ADD PUSH1 0x40 MLOAD SWAP1 DUP2 ADD PUSH1 0x40 MSTORE DUP1 SWAP3 SWAP2 SWAP1 DUP2 DUP2 MSTORE PUSH1 0x20 ADD DUP3 DUP1 SLOAD PUSH2 0x5EB SWAP1 PUSH2 0x240C JUMP JUMPDEST DUP1 ISZERO PUSH2 0x638 JUMPI DUP1 PUSH1 0x1F LT PUSH2 0x60D JUMPI PUSH2 0x100 DUP1 DUP4 SLOAD DIV MUL DUP4 MSTORE SWAP2 PUSH1 0x20 ADD SWAP2 PUSH2 0x638 JUMP JUMPDEST DUP3 ADD SWAP2 SWAP1 PUSH1 0x0 MSTORE PUSH1 0x20 PUSH1 0x0 KECCAK256 SWAP1 JUMPDEST DUP2 SLOAD DUP2 MSTORE SWAP1 PUSH1 0x1 ADD SWAP1 PUSH1 0x20 ADD DUP1 DUP4 GT PUSH2 0x61B JUMPI DUP3 SWAP1 SUB PUSH1 0x1F AND DUP3 ADD SWAP2 JUMPDEST POP POP POP POP POP DUP2 JUMP JUMPDEST PUSH1 0x0 DUP3 DUP2 MSTORE PUSH1 0xB PUSH1 0x20 MSTORE PUSH1 0x40 SWAP1 KECCAK256 SLOAD ISZERO PUSH2 0x69C JUMPI PUSH1 0x40 MLOAD PUSH3 0x461BCD PUSH1 0xE5 SHL DUP2 MSTORE PUSH1 0x20 PUSH1 0x4 DUP3 ADD MSTORE PUSH1 0x1A PUSH1 0x24 DUP3 ADD MSTORE PUSH32 0x73747564656E7420616C72656164792072656769737465726564000000000000 PUSH1 0x44 DUP3 ADD MSTORE PUSH1 0x64 ADD PUSH2 0x33D JUMP JUMPDEST PUSH1 0x0 DUP3 DUP2 MSTORE PUSH1 0xB PUSH1 0x20 MSTORE PUSH1 0x40 SWAP1 KECCAK256 SWAP2 DUP3 SSTORE PUSH1 0x1 DUP3 ADD SSTORE PUSH1 0x2 DUP2 ADD DUP1 SLOAD PUSH1 0xFF NOT SWAP1 DUP2 AND SWAP1 SWAP2 SSTORE PUSH1 0x4 SWAP1 SWAP2 ADD DUP1 SLOAD SWAP1 SWAP2 AND SWAP1 SSTORE JUMP JUMPDEST PUSH1 0x0 DUP3 DUP2 MSTORE PUSH1 0x5 PUSH1 0x20 MSTORE PUSH1 0x40 SWAP1 KECCAK256 SLOAD DUP3 SWAP1 PUSH1 0x1 PUSH1 0x1 PUSH1 0xA0 SHL SUB AND CALLER EQ PUSH2 0x748 JUMPI PUSH1 0x40 MLOAD PUSH3 0x461BCD PUSH1 0xE5 SHL DUP2 MSTORE PUSH1 0x20 PUSH1 0x4 DUP3 ADD MSTORE PUSH1 0x28 PUSH1 0x24 DUP3 ADD MSTORE PUSH32 0x536F75726365206D75737420626520746865206F7261636C65206F6620746865 PUSH1 0x44 DUP3 ADD MSTORE PUSH8 0x81C995C5D595CDD PUSH1 0xC2 SHL PUSH1 0x64 DUP3 ADD MSTORE PUSH1 0x84 ADD PUSH2 0x33D JUMP JUMPDEST PUSH1 0x0 DUP2 DUP2 MSTORE PUSH1 0x5 PUSH1 0x20 MSTORE PUSH1 0x40 DUP1 DUP3 KECCAK256 DUP1 SLOAD PUSH1 0x1 PUSH1 0x1 PUSH1 0xA0 SHL SUB NOT AND SWAP1 SSTORE MLOAD DUP3 SWAP2 PUSH32 0x7CC135E0CEBB02C3480AE5D74D377283180A2601F8F644EDF7987B009316C63A SWAP2 LOG2 PUSH1 0x8 DUP3 SWAP1 SSTORE PUSH2 0x799 DUP3 PUSH2 0x11AB JUMP JUMPDEST POP POP POP JUMP JUMPDEST CALLER PUSH1 0x0 SWAP1 DUP2 MSTORE PUSH1 0xC PUSH1 0x20 MSTORE PUSH1 0x40 SWAP1 KECCAK256 DUP1 SLOAD PUSH2 0x7B8 SWAP1 PUSH2 0x240C JUMP JUMPDEST ISZERO ISZERO SWAP1 POP PUSH2 0x7D8 JUMPI PUSH1 0x40 MLOAD PUSH3 0x461BCD PUSH1 0xE5 SHL DUP2 MSTORE PUSH1 0x4 ADD PUSH2 0x33D SWAP1 PUSH2 0x2441 JUMP JUMPDEST CALLER PUSH1 0x0 SWAP1 DUP2 MSTORE PUSH1 0xC PUSH1 0x20 MSTORE PUSH1 0x40 SWAP1 KECCAK256 PUSH1 0x4 ADD SLOAD PUSH1 0xFF AND PUSH2 0x80A JUMPI PUSH1 0x40 MLOAD PUSH3 0x461BCD PUSH1 0xE5 SHL DUP2 MSTORE PUSH1 0x4 ADD PUSH2 0x33D SWAP1 PUSH2 0x2484 JUMP JUMPDEST PUSH1 0xD DUP2 PUSH1 0x40 MLOAD PUSH2 0x81A SWAP2 SWAP1 PUSH2 0x24C5 JUMP JUMPDEST SWAP1 DUP2 MSTORE PUSH1 0x20 ADD PUSH1 0x40 MLOAD DUP1 SWAP2 SUB SWAP1 KECCAK256 DUP1 SLOAD PUSH2 0x833 SWAP1 PUSH2 0x240C JUMP JUMPDEST ISZERO SWAP1 POP PUSH2 0x88E JUMPI PUSH1 0x40 MLOAD PUSH3 0x461BCD PUSH1 0xE5 SHL DUP2 MSTORE PUSH1 0x20 PUSH1 0x4 DUP3 ADD MSTORE PUSH1 0x24 DUP1 DUP3 ADD MSTORE PUSH32 0x74686973207472616E73616374696F6E2068617320616C7265616479206F6363 PUSH1 0x44 DUP3 ADD MSTORE PUSH4 0x1D5C9959 PUSH1 0xE2 SHL PUSH1 0x64 DUP3 ADD MSTORE PUSH1 0x84 ADD PUSH2 0x33D JUMP JUMPDEST PUSH1 0x0 DUP4 DUP2 MSTORE PUSH1 0xB PUSH1 0x20 MSTORE PUSH1 0x40 SWAP1 KECCAK256 SLOAD PUSH2 0x8F9 JUMPI PUSH1 0x40 MLOAD PUSH3 0x461BCD PUSH1 0xE5 SHL DUP2 MSTORE PUSH1 0x20 PUSH1 0x4 DUP3 ADD MSTORE PUSH1 0x27 PUSH1 0x24 DUP3 ADD MSTORE PUSH32 0x73747564656E74206973206E6F742072656769737465726564206F6E20746865 PUSH1 0x44 DUP3 ADD MSTORE PUSH7 0x81C1BDC9D185B PUSH1 0xCA SHL PUSH1 0x64 DUP3 ADD MSTORE PUSH1 0x84 ADD PUSH2 0x33D JUMP JUMPDEST CALLER PUSH1 0x0 SWAP1 DUP2 MSTORE PUSH1 0xC PUSH1 0x20 MSTORE PUSH1 0x40 SWAP1 KECCAK256 PUSH1 0x1 ADD SLOAD PUSH1 0xFF AND ISZERO PUSH2 0x991 JUMPI PUSH1 0x0 DUP4 DUP2 MSTORE PUSH1 0xB PUSH1 0x20 MSTORE PUSH1 0x40 SWAP1 KECCAK256 PUSH1 0x2 ADD SLOAD PUSH1 0xFF AND ISZERO PUSH2 0x991 JUMPI PUSH1 0x40 MLOAD PUSH3 0x461BCD PUSH1 0xE5 SHL DUP2 MSTORE PUSH1 0x20 PUSH1 0x4 DUP3 ADD MSTORE PUSH1 0x32 PUSH1 0x24 DUP3 ADD MSTORE PUSH32 0x73747564656E742068617320616C726561647920726563656976656420676F76 PUSH1 0x44 DUP3 ADD MSTORE PUSH18 0x65726D656E74207363686F6C6F727368697 PUSH1 0x74 SHL PUSH1 0x64 DUP3 ADD MSTORE PUSH1 0x84 ADD PUSH2 0x33D JUMP JUMPDEST PUSH1 0xE DUP1 SLOAD PUSH1 0x1 PUSH1 0x1 PUSH1 0xA0 SHL SUB NOT AND CALLER OR SWAP1 SSTORE PUSH1 0xF DUP4 SWAP1 SSTORE DUP1 MLOAD PUSH2 0x9BB SWAP1 PUSH1 0x10 SWAP1 PUSH1 0x20 DUP5 ADD SWAP1 PUSH2 0x1EBE JUMP JUMPDEST POP PUSH2 0x9C7 DUP2 DUP5 DUP5 PUSH2 0x9CD JUMP JUMPDEST POP POP POP POP JUMP JUMPDEST PUSH1 0x0 DUP1 PUSH2 0x9E4 PUSH1 0x9 SLOAD ADDRESS PUSH4 0x4357855E PUSH1 0xE0 SHL PUSH2 0x14D2 JUMP JUMPDEST SWAP1 POP PUSH1 0x0 DUP6 PUSH2 0x9F2 DUP6 PUSH2 0x14F7 JUMP JUMPDEST PUSH2 0x9FB DUP8 PUSH2 0x14F7 JUMP JUMPDEST PUSH1 0x40 MLOAD PUSH1 0x20 ADD PUSH2 0xA0D SWAP4 SWAP3 SWAP2 SWAP1 PUSH2 0x24E1 JUMP JUMPDEST PUSH1 0x40 DUP1 MLOAD PUSH1 0x1F NOT DUP2 DUP5 SUB ADD DUP2 MSTORE DUP3 DUP3 ADD SWAP1 SWAP2 MSTORE PUSH1 0x3 DUP3 MSTORE PUSH3 0x19D95D PUSH1 0xEA SHL PUSH1 0x20 DUP4 ADD MSTORE SWAP2 POP PUSH2 0xA3E SWAP1 DUP4 SWAP1 DUP4 PUSH2 0x1593 JUMP JUMPDEST PUSH2 0xA8D PUSH1 0x40 MLOAD DUP1 PUSH1 0x40 ADD PUSH1 0x40 MSTORE DUP1 PUSH1 0x4 DUP2 MSTORE PUSH1 0x20 ADD PUSH4 0xE0C2E8D PUSH1 0xE3 SHL DUP2 MSTORE POP PUSH1 0x40 MLOAD DUP1 PUSH1 0x40 ADD PUSH1 0x40 MSTORE DUP1 PUSH1 0x6 DUP2 MSTORE PUSH1 0x20 ADD PUSH6 0x185B5BDD5B9D PUSH1 0xD2 SHL DUP2 MSTORE POP DUP5 PUSH2 0x1593 SWAP1 SWAP3 SWAP2 SWAP1 PUSH4 0xFFFFFFFF AND JUMP JUMPDEST PUSH1 0x40 DUP1 MLOAD DUP1 DUP3 ADD SWAP1 SWAP2 MSTORE PUSH1 0x5 DUP2 MSTORE PUSH5 0x74696D6573 PUSH1 0xD8 SHL PUSH1 0x20 DUP3 ADD MSTORE PUSH1 0x1 SWAP1 PUSH2 0xAB8 SWAP1 DUP5 SWAP1 DUP4 PUSH2 0x15B1 JUMP JUMPDEST PUSH2 0xAC4 DUP4 PUSH1 0xA SLOAD PUSH2 0x15CF JUMP JUMPDEST SWAP8 SWAP7 POP POP POP POP POP POP POP JUMP JUMPDEST CALLER PUSH1 0x0 SWAP1 DUP2 MSTORE PUSH1 0xC PUSH1 0x20 MSTORE PUSH1 0x40 SWAP1 KECCAK256 DUP1 SLOAD PUSH2 0xAE9 SWAP1 PUSH2 0x240C JUMP JUMPDEST ISZERO SWAP1 POP PUSH2 0xB4D JUMPI PUSH1 0x40 MLOAD PUSH3 0x461BCD PUSH1 0xE5 SHL DUP2 MSTORE PUSH1 0x20 PUSH1 0x4 DUP3 ADD MSTORE PUSH1 0x2C PUSH1 0x24 DUP3 ADD MSTORE PUSH32 0x6F7267616E697A6174696F6E2077697468207468697320616464726573732061 PUSH1 0x44 DUP3 ADD MSTORE PUSH12 0x1B1C9958591E48195E1A5CDD PUSH1 0xA2 SHL PUSH1 0x64 DUP3 ADD MSTORE PUSH1 0x84 ADD PUSH2 0x33D JUMP JUMPDEST PUSH1 0x40 DUP1 MLOAD PUSH1 0xA0 DUP2 ADD DUP3 MSTORE DUP5 DUP2 MSTORE DUP4 ISZERO ISZERO PUSH1 0x20 DUP1 DUP4 ADD SWAP2 SWAP1 SWAP2 MSTORE DUP2 DUP4 ADD DUP5 SWAP1 MSTORE PUSH1 0x0 PUSH1 0x60 DUP4 ADD DUP2 SWAP1 MSTORE PUSH1 0x80 DUP4 ADD DUP2 SWAP1 MSTORE CALLER DUP2 MSTORE PUSH1 0xC DUP3 MSTORE SWAP3 SWAP1 SWAP3 KECCAK256 DUP2 MLOAD DUP1 MLOAD SWAP3 SWAP4 DUP5 SWAP4 PUSH2 0xB9C SWAP3 DUP5 SWAP3 ADD SWAP1 PUSH2 0x1EBE JUMP JUMPDEST POP PUSH1 0x20 DUP3 ADD MLOAD PUSH1 0x1 DUP3 ADD DUP1 SLOAD SWAP2 ISZERO ISZERO PUSH1 0xFF NOT SWAP3 DUP4 AND OR SWAP1 SSTORE PUSH1 0x40 DUP4 ADD MLOAD PUSH1 0x2 DUP4 ADD SSTORE PUSH1 0x60 DUP4 ADD MLOAD PUSH1 0x3 DUP4 ADD SSTORE PUSH1 0x80 SWAP1 SWAP3 ADD MLOAD PUSH1 0x4 SWAP1 SWAP2 ADD DUP1 SLOAD SWAP2 ISZERO ISZERO SWAP2 SWAP1 SWAP3 AND OR SWAP1 SSTORE POP POP POP POP JUMP JUMPDEST PUSH2 0xBED PUSH2 0x15F0 JUMP JUMPDEST PUSH1 0x1 PUSH1 0x1 PUSH1 0xA0 SHL SUB DUP2 AND PUSH1 0x0 SWAP1 DUP2 MSTORE PUSH1 0xC PUSH1 0x20 MSTORE PUSH1 0x40 SWAP1 KECCAK256 DUP1 SLOAD PUSH2 0xC10 SWAP1 PUSH2 0x240C JUMP JUMPDEST ISZERO ISZERO SWAP1 POP PUSH2 0xC60 JUMPI PUSH1 0x40 MLOAD PUSH3 0x461BCD PUSH1 0xE5 SHL DUP2 MSTORE PUSH1 0x20 PUSH1 0x4 DUP3 ADD MSTORE PUSH1 0x1A PUSH1 0x24 DUP3 ADD MSTORE PUSH32 0x6E6F2073756368206F7267616E697A6174696F6E206578697374000000000000 PUSH1 0x44 DUP3 ADD MSTORE PUSH1 0x64 ADD PUSH2 0x33D JUMP JUMPDEST PUSH1 0x1 PUSH1 0x1 PUSH1 0xA0 SHL SUB AND PUSH1 0x0 SWAP1 DUP2 MSTORE PUSH1 0xC PUSH1 0x20 MSTORE PUSH1 0x40 SWAP1 KECCAK256 PUSH1 0x4 ADD DUP1 SLOAD PUSH1 0xFF NOT AND PUSH1 0x1 OR SWAP1 SSTORE JUMP JUMPDEST PUSH1 0x7 SLOAD PUSH1 0x1 PUSH1 0x1 PUSH1 0xA0 SHL SUB AND CALLER EQ PUSH2 0xCDA JUMPI PUSH1 0x40 MLOAD PUSH3 0x461BCD PUSH1 0xE5 SHL DUP2 MSTORE PUSH1 0x20 PUSH1 0x4 DUP3 ADD MSTORE PUSH1 0x16 PUSH1 0x24 DUP3 ADD MSTORE PUSH22 0x26BAB9BA10313290383937B837B9B2B21037BBB732B9 PUSH1 0x51 SHL PUSH1 0x44 DUP3 ADD MSTORE PUSH1 0x64 ADD PUSH2 0x33D JUMP JUMPDEST PUSH1 0x6 DUP1 SLOAD PUSH1 0x1 PUSH1 0x1 PUSH1 0xA0 SHL SUB NOT DUP1 DUP3 AND CALLER SWAP1 DUP2 OR SWAP1 SWAP4 SSTORE PUSH1 0x7 DUP1 SLOAD SWAP1 SWAP2 AND SWAP1 SSTORE PUSH1 0x40 MLOAD PUSH1 0x1 PUSH1 0x1 PUSH1 0xA0 SHL SUB SWAP1 SWAP2 AND SWAP2 SWAP1 DUP3 SWAP1 PUSH32 0x8BE0079C531659141344CD1FD0A4F28419497F9722A3DAAFE3B4186F6B6457E0 SWAP1 PUSH1 0x0 SWAP1 LOG3 POP JUMP JUMPDEST PUSH2 0xD3D PUSH2 0x15F0 JUMP JUMPDEST PUSH1 0x0 PUSH2 0xD51 PUSH1 0x2 SLOAD PUSH1 0x1 PUSH1 0x1 PUSH1 0xA0 SHL SUB AND SWAP1 JUMP JUMPDEST PUSH1 0x40 MLOAD PUSH4 0x70A08231 PUSH1 0xE0 SHL DUP2 MSTORE ADDRESS PUSH1 0x4 DUP3 ADD MSTORE SWAP1 SWAP2 POP PUSH1 0x1 PUSH1 0x1 PUSH1 0xA0 SHL SUB DUP3 AND SWAP1 PUSH4 0xA9059CBB SWAP1 CALLER SWAP1 DUP4 SWAP1 PUSH4 0x70A08231 SWAP1 PUSH1 0x24 ADD PUSH1 0x20 PUSH1 0x40 MLOAD DUP1 DUP4 SUB DUP2 DUP7 GAS STATICCALL ISZERO DUP1 ISZERO PUSH2 0xDA2 JUMPI RETURNDATASIZE PUSH1 0x0 DUP1 RETURNDATACOPY RETURNDATASIZE PUSH1 0x0 REVERT JUMPDEST POP POP POP POP PUSH1 0x40 MLOAD RETURNDATASIZE PUSH1 0x1F NOT PUSH1 0x1F DUP3 ADD AND DUP3 ADD DUP1 PUSH1 0x40 MSTORE POP DUP2 ADD SWAP1 PUSH2 0xDC6 SWAP2 SWAP1 PUSH2 0x2594 JUMP JUMPDEST PUSH1 0x40 MLOAD PUSH1 0x1 PUSH1 0x1 PUSH1 0xE0 SHL SUB NOT PUSH1 0xE0 DUP6 SWAP1 SHL AND DUP2 MSTORE PUSH1 0x1 PUSH1 0x1 PUSH1 0xA0 SHL SUB SWAP1 SWAP3 AND PUSH1 0x4 DUP4 ADD MSTORE PUSH1 0x24 DUP3 ADD MSTORE PUSH1 0x44 ADD PUSH1 0x20 PUSH1 0x40 MLOAD DUP1 DUP4 SUB DUP2 PUSH1 0x0 DUP8 GAS CALL ISZERO DUP1 ISZERO PUSH2 0xE11 JUMPI RETURNDATASIZE PUSH1 0x0 DUP1 RETURNDATACOPY RETURNDATASIZE PUSH1 0x0 REVERT JUMPDEST POP POP POP POP PUSH1 0x40 MLOAD RETURNDATASIZE PUSH1 0x1F NOT PUSH1 0x1F DUP3 ADD AND DUP3 ADD DUP1 PUSH1 0x40 MSTORE POP DUP2 ADD SWAP1 PUSH2 0xE35 SWAP2 SWAP1 PUSH2 0x25AD JUMP JUMPDEST PUSH2 0xE76 JUMPI PUSH1 0x40 MLOAD PUSH3 0x461BCD PUSH1 0xE5 SHL DUP2 MSTORE PUSH1 0x20 PUSH1 0x4 DUP3 ADD MSTORE PUSH1 0x12 PUSH1 0x24 DUP3 ADD MSTORE PUSH18 0x2AB730B13632903A37903A3930B739B332B9 PUSH1 0x71 SHL PUSH1 0x44 DUP3 ADD MSTORE PUSH1 0x64 ADD PUSH2 0x33D JUMP JUMPDEST POP JUMP JUMPDEST CALLER PUSH1 0x0 SWAP1 DUP2 MSTORE PUSH1 0xC PUSH1 0x20 MSTORE PUSH1 0x40 SWAP1 KECCAK256 DUP1 SLOAD PUSH2 0xE93 SWAP1 PUSH2 0x240C JUMP JUMPDEST ISZERO ISZERO SWAP1 POP PUSH2 0xEB3 JUMPI PUSH1 0x40 MLOAD PUSH3 0x461BCD PUSH1 0xE5 SHL DUP2 MSTORE PUSH1 0x4 ADD PUSH2 0x33D SWAP1 PUSH2 0x2441 JUMP JUMPDEST CALLER PUSH1 0x0 SWAP1 DUP2 MSTORE PUSH1 0xC PUSH1 0x20 MSTORE PUSH1 0x40 SWAP1 KECCAK256 PUSH1 0x4 ADD SLOAD PUSH1 0xFF AND PUSH2 0xEE5 JUMPI PUSH1 0x40 MLOAD PUSH3 0x461BCD PUSH1 0xE5 SHL DUP2 MSTORE PUSH1 0x4 ADD PUSH2 0x33D SWAP1 PUSH2 0x2484 JUMP JUMPDEST PUSH1 0x0 DUP2 DUP2 MSTORE PUSH1 0xB PUSH1 0x20 MSTORE PUSH1 0x40 SWAP1 KECCAK256 SLOAD PUSH2 0xF39 JUMPI PUSH1 0x40 MLOAD PUSH3 0x461BCD PUSH1 0xE5 SHL DUP2 MSTORE PUSH1 0x20 PUSH1 0x4 DUP3 ADD MSTORE PUSH1 0x16 PUSH1 0x24 DUP3 ADD MSTORE PUSH22 0x1CDD1D59195B9D08191BD95CC81B9BDD08195E1A5CDD PUSH1 0x52 SHL PUSH1 0x44 DUP3 ADD MSTORE PUSH1 0x64 ADD PUSH2 0x33D JUMP JUMPDEST PUSH1 0x0 SWAP1 DUP2 MSTORE PUSH1 0xB PUSH1 0x20 MSTORE PUSH1 0x40 SWAP1 KECCAK256 PUSH1 0x4 ADD DUP1 SLOAD PUSH1 0xFF NOT AND PUSH1 0x1 OR SWAP1 SSTORE JUMP JUMPDEST PUSH1 0xC PUSH1 0x20 MSTORE PUSH1 0x0 SWAP1 DUP2 MSTORE PUSH1 0x40 SWAP1 KECCAK256 DUP1 SLOAD DUP2 SWAP1 PUSH2 0xF72 SWAP1 PUSH2 0x240C JUMP JUMPDEST DUP1 PUSH1 0x1F ADD PUSH1 0x20 DUP1 SWAP2 DIV MUL PUSH1 0x20 ADD PUSH1 0x40 MLOAD SWAP1 DUP2 ADD PUSH1 0x40 MSTORE DUP1 SWAP3 SWAP2 SWAP1 DUP2 DUP2 MSTORE PUSH1 0x20 ADD DUP3 DUP1 SLOAD PUSH2 0xF9E SWAP1 PUSH2 0x240C JUMP JUMPDEST DUP1 ISZERO PUSH2 0xFEB JUMPI DUP1 PUSH1 0x1F LT PUSH2 0xFC0 JUMPI PUSH2 0x100 DUP1 DUP4 SLOAD DIV MUL DUP4 MSTORE SWAP2 PUSH1 0x20 ADD SWAP2 PUSH2 0xFEB JUMP JUMPDEST DUP3 ADD SWAP2 SWAP1 PUSH1 0x0 MSTORE PUSH1 0x20 PUSH1 0x0 KECCAK256 SWAP1 JUMPDEST DUP2 SLOAD DUP2 MSTORE SWAP1 PUSH1 0x1 ADD SWAP1 PUSH1 0x20 ADD DUP1 DUP4 GT PUSH2 0xFCE JUMPI DUP3 SWAP1 SUB PUSH1 0x1F AND DUP3 ADD SWAP2 JUMPDEST POP POP POP PUSH1 0x1 DUP5 ADD SLOAD PUSH1 0x2 DUP6 ADD SLOAD PUSH1 0x3 DUP7 ADD SLOAD PUSH1 0x4 SWAP1 SWAP7 ADD SLOAD SWAP5 SWAP6 PUSH1 0xFF SWAP3 DUP4 AND SWAP6 SWAP2 SWAP5 POP SWAP3 POP AND DUP6 JUMP JUMPDEST PUSH2 0x104A PUSH1 0x40 MLOAD DUP1 PUSH1 0xA0 ADD PUSH1 0x40 MSTORE DUP1 PUSH1 0x60 DUP2 MSTORE PUSH1 0x20 ADD PUSH1 0x0 ISZERO ISZERO DUP2 MSTORE PUSH1 0x20 ADD PUSH1 0x0 DUP2 MSTORE PUSH1 0x20 ADD PUSH1 0x0 DUP2 MSTORE PUSH1 0x20 ADD PUSH1 0x0 ISZERO ISZERO DUP2 MSTORE POP SWAP1 JUMP JUMPDEST PUSH1 0x1 PUSH1 0x1 PUSH1 0xA0 SHL SUB DUP3 AND PUSH1 0x0 SWAP1 DUP2 MSTORE PUSH1 0xC PUSH1 0x20 MSTORE PUSH1 0x40 DUP1 DUP3 KECCAK256 DUP2 MLOAD PUSH1 0xA0 DUP2 ADD SWAP1 SWAP3 MSTORE DUP1 SLOAD DUP3 SWAP1 DUP3 SWAP1 PUSH2 0x107B SWAP1 PUSH2 0x240C JUMP JUMPDEST DUP1 PUSH1 0x1F ADD PUSH1 0x20 DUP1 SWAP2 DIV MUL PUSH1 0x20 ADD PUSH1 0x40 MLOAD SWAP1 DUP2 ADD PUSH1 0x40 MSTORE DUP1 SWAP3 SWAP2 SWAP1 DUP2 DUP2 MSTORE PUSH1 0x20 ADD DUP3 DUP1 SLOAD PUSH2 0x10A7 SWAP1 PUSH2 0x240C JUMP JUMPDEST DUP1 ISZERO PUSH2 0x10F4 JUMPI DUP1 PUSH1 0x1F LT PUSH2 0x10C9 JUMPI PUSH2 0x100 DUP1 DUP4 SLOAD DIV MUL DUP4 MSTORE SWAP2 PUSH1 0x20 ADD SWAP2 PUSH2 0x10F4 JUMP JUMPDEST DUP3 ADD SWAP2 SWAP1 PUSH1 0x0 MSTORE PUSH1 0x20 PUSH1 0x0 KECCAK256 SWAP1 JUMPDEST DUP2 SLOAD DUP2 MSTORE SWAP1 PUSH1 0x1 ADD SWAP1 PUSH1 0x20 ADD DUP1 DUP4 GT PUSH2 0x10D7 JUMPI DUP3 SWAP1 SUB PUSH1 0x1F AND DUP3 ADD SWAP2 JUMPDEST POP POP POP SWAP2 DUP4 MSTORE POP POP PUSH1 0x1 DUP3 ADD SLOAD PUSH1 0xFF SWAP1 DUP2 AND ISZERO ISZERO PUSH1 0x20 DUP4 ADD MSTORE PUSH1 0x2 DUP4 ADD SLOAD PUSH1 0x40 DUP4 ADD MSTORE PUSH1 0x3 DUP4 ADD SLOAD PUSH1 0x60 DUP4 ADD MSTORE PUSH1 0x4 SWAP1 SWAP3 ADD SLOAD SWAP1 SWAP2 AND ISZERO ISZERO PUSH1 0x80 SWAP1 SWAP2 ADD MSTORE DUP1 MLOAD MLOAD SWAP1 SWAP2 POP PUSH2 0x595 JUMPI PUSH1 0x40 MLOAD PUSH3 0x461BCD PUSH1 0xE5 SHL DUP2 MSTORE PUSH1 0x20 PUSH1 0x4 DUP3 ADD MSTORE PUSH1 0x2D PUSH1 0x24 DUP3 ADD MSTORE PUSH32 0x6F7267616E697A6174696F6E2077697468207468697320616464726573732064 PUSH1 0x44 DUP3 ADD MSTORE PUSH13 0x1BD95CC81B9BDD08195E1A5CDD PUSH1 0x9A SHL PUSH1 0x64 DUP3 ADD MSTORE PUSH1 0x84 ADD PUSH2 0x33D JUMP JUMPDEST PUSH2 0x11A2 PUSH2 0x15F0 JUMP JUMPDEST PUSH2 0xE76 DUP2 PUSH2 0x1645 JUMP JUMPDEST PUSH1 0x0 DUP2 GT PUSH2 0x11F1 JUMPI PUSH1 0x40 MLOAD PUSH3 0x461BCD PUSH1 0xE5 SHL DUP2 MSTORE PUSH1 0x20 PUSH1 0x4 DUP3 ADD MSTORE PUSH1 0x13 PUSH1 0x24 DUP3 ADD MSTORE PUSH19 0x34B73B30B634B2103A3930B739B0B1BA34B7B7 PUSH1 0x69 SHL PUSH1 0x44 DUP3 ADD MSTORE PUSH1 0x64 ADD PUSH2 0x33D JUMP JUMPDEST PUSH1 0xE SLOAD PUSH1 0x1 PUSH1 0x1 PUSH1 0xA0 SHL SUB AND PUSH1 0x0 SWAP1 DUP2 MSTORE PUSH1 0xC PUSH1 0x20 MSTORE PUSH1 0x40 DUP2 KECCAK256 PUSH1 0x3 DUP2 ADD SLOAD PUSH1 0x2 DUP3 ADD SLOAD SWAP2 SWAP3 SWAP2 PUSH2 0x1222 SWAP2 SWAP1 PUSH2 0x25E0 JUMP JUMPDEST SWAP1 POP PUSH1 0x0 PUSH2 0x1230 DUP5 DUP4 PUSH2 0x25E0 JUMP JUMPDEST LT ISZERO PUSH2 0x1295 JUMPI PUSH1 0x40 MLOAD PUSH3 0x461BCD PUSH1 0xE5 SHL DUP2 MSTORE PUSH1 0x20 PUSH1 0x4 DUP3 ADD MSTORE PUSH1 0x2E PUSH1 0x24 DUP3 ADD MSTORE PUSH32 0x796F7520646F6E7420656E6F7567682066756E64732C7468757320696E76616C PUSH1 0x44 DUP3 ADD MSTORE PUSH14 0x34B2103A3930B739B0B1BA34B7B7 PUSH1 0x91 SHL PUSH1 0x64 DUP3 ADD MSTORE PUSH1 0x84 ADD PUSH2 0x33D JUMP JUMPDEST DUP3 DUP3 PUSH1 0x3 ADD PUSH1 0x0 DUP3 DUP3 SLOAD PUSH2 0x12A9 SWAP2 SWAP1 PUSH2 0x25F7 JUMP JUMPDEST SWAP1 SWAP2 SSTORE POP POP PUSH1 0x40 MLOAD DUP3 SWAP1 PUSH1 0xD SWAP1 PUSH2 0x12C2 SWAP1 PUSH1 0x10 SWAP1 PUSH2 0x260F JUMP JUMPDEST SWAP1 DUP2 MSTORE PUSH1 0x20 ADD PUSH1 0x40 MLOAD DUP1 SWAP2 SUB SWAP1 KECCAK256 SWAP1 DUP1 SLOAD PUSH2 0x12DC SWAP1 PUSH2 0x240C JUMP JUMPDEST PUSH2 0x12E7 SWAP3 SWAP2 SWAP1 PUSH2 0x1F42 JUMP JUMPDEST POP PUSH1 0xF SLOAD PUSH1 0x0 SWAP1 DUP2 MSTORE PUSH1 0xB PUSH1 0x20 SWAP1 DUP2 MSTORE PUSH1 0x40 DUP1 DUP4 KECCAK256 PUSH1 0xE SLOAD PUSH1 0x1 PUSH1 0x1 PUSH1 0xA0 SHL SUB AND DUP5 MSTORE PUSH1 0xC SWAP1 SWAP3 MSTORE SWAP1 SWAP2 KECCAK256 PUSH1 0x1 ADD SLOAD PUSH1 0xFF AND ISZERO PUSH2 0x133C JUMPI PUSH1 0x2 DUP2 ADD DUP1 SLOAD PUSH1 0xFF NOT SWAP1 DUP2 AND PUSH1 0x1 OR SWAP1 SWAP2 SSTORE PUSH1 0x4 DUP3 ADD DUP1 SLOAD SWAP1 SWAP2 AND SWAP1 SSTORE JUMPDEST PUSH1 0x0 PUSH1 0x40 MLOAD DUP1 PUSH1 0x60 ADD PUSH1 0x40 MSTORE DUP1 DUP6 PUSH1 0x0 ADD DUP1 SLOAD PUSH2 0x1358 SWAP1 PUSH2 0x240C JUMP JUMPDEST DUP1 PUSH1 0x1F ADD PUSH1 0x20 DUP1 SWAP2 DIV MUL PUSH1 0x20 ADD PUSH1 0x40 MLOAD SWAP1 DUP2 ADD PUSH1 0x40 MSTORE DUP1 SWAP3 SWAP2 SWAP1 DUP2 DUP2 MSTORE PUSH1 0x20 ADD DUP3 DUP1 SLOAD PUSH2 0x1384 SWAP1 PUSH2 0x240C JUMP JUMPDEST DUP1 ISZERO PUSH2 0x13D1 JUMPI DUP1 PUSH1 0x1F LT PUSH2 0x13A6 JUMPI PUSH2 0x100 DUP1 DUP4 SLOAD DIV MUL DUP4 MSTORE SWAP2 PUSH1 0x20 ADD SWAP2 PUSH2 0x13D1 JUMP JUMPDEST DUP3 ADD SWAP2 SWAP1 PUSH1 0x0 MSTORE PUSH1 0x20 PUSH1 0x0 KECCAK256 SWAP1 JUMPDEST DUP2 SLOAD DUP2 MSTORE SWAP1 PUSH1 0x1 ADD SWAP1 PUSH1 0x20 ADD DUP1 DUP4 GT PUSH2 0x13B4 JUMPI DUP3 SWAP1 SUB PUSH1 0x1F AND DUP3 ADD SWAP2 JUMPDEST POP POP POP POP POP DUP2 MSTORE PUSH1 0x20 ADD DUP7 DUP2 MSTORE PUSH1 0x20 ADD PUSH1 0x10 DUP1 SLOAD PUSH2 0x13EE SWAP1 PUSH2 0x240C JUMP JUMPDEST DUP1 PUSH1 0x1F ADD PUSH1 0x20 DUP1 SWAP2 DIV MUL PUSH1 0x20 ADD PUSH1 0x40 MLOAD SWAP1 DUP2 ADD PUSH1 0x40 MSTORE DUP1 SWAP3 SWAP2 SWAP1 DUP2 DUP2 MSTORE PUSH1 0x20 ADD DUP3 DUP1 SLOAD PUSH2 0x141A SWAP1 PUSH2 0x240C JUMP JUMPDEST DUP1 ISZERO PUSH2 0x1467 JUMPI DUP1 PUSH1 0x1F LT PUSH2 0x143C JUMPI PUSH2 0x100 DUP1 DUP4 SLOAD DIV MUL DUP4 MSTORE SWAP2 PUSH1 0x20 ADD SWAP2 PUSH2 0x1467 JUMP JUMPDEST DUP3 ADD SWAP2 SWAP1 PUSH1 0x0 MSTORE PUSH1 0x20 PUSH1 0x0 KECCAK256 SWAP1 JUMPDEST DUP2 SLOAD DUP2 MSTORE SWAP1 PUSH1 0x1 ADD SWAP1 PUSH1 0x20 ADD DUP1 DUP4 GT PUSH2 0x144A JUMPI DUP3 SWAP1 SUB PUSH1 0x1F AND DUP3 ADD SWAP2 JUMPDEST POP POP POP SWAP2 SWAP1 SWAP3 MSTORE POP POP PUSH1 0x3 DUP1 DUP5 ADD DUP1 SLOAD PUSH1 0x1 DUP2 ADD DUP3 SSTORE PUSH1 0x0 SWAP2 DUP3 MSTORE PUSH1 0x20 SWAP2 DUP3 SWAP1 KECCAK256 DUP5 MLOAD DUP1 MLOAD SWAP6 SWAP7 POP DUP7 SWAP6 SWAP3 SWAP1 SWAP5 MUL ADD SWAP3 PUSH2 0x14A5 SWAP3 DUP5 SWAP3 SWAP2 ADD SWAP1 PUSH2 0x1EBE JUMP JUMPDEST POP PUSH1 0x20 DUP3 DUP2 ADD MLOAD PUSH1 0x1 DUP4 ADD SSTORE PUSH1 0x40 DUP4 ADD MLOAD DUP1 MLOAD PUSH2 0x14C8 SWAP3 PUSH1 0x2 DUP6 ADD SWAP3 ADD SWAP1 PUSH2 0x1EBE JUMP JUMPDEST POP POP POP POP POP POP POP POP JUMP JUMPDEST PUSH2 0x14DA PUSH2 0x1FBD JUMP JUMPDEST PUSH2 0x14E2 PUSH2 0x1FBD JUMP JUMPDEST PUSH2 0x14EE DUP2 DUP7 DUP7 DUP7 PUSH2 0x16F0 JUMP JUMPDEST SWAP6 SWAP5 POP POP POP POP POP JUMP JUMPDEST PUSH1 0x60 PUSH1 0x0 PUSH2 0x1504 DUP4 PUSH2 0x1736 JUMP JUMPDEST PUSH1 0x1 ADD SWAP1 POP PUSH1 0x0 DUP2 PUSH1 0x1 PUSH1 0x1 PUSH1 0x40 SHL SUB DUP2 GT ISZERO PUSH2 0x1523 JUMPI PUSH2 0x1523 PUSH2 0x2148 JUMP JUMPDEST PUSH1 0x40 MLOAD SWAP1 DUP1 DUP3 MSTORE DUP1 PUSH1 0x1F ADD PUSH1 0x1F NOT AND PUSH1 0x20 ADD DUP3 ADD PUSH1 0x40 MSTORE DUP1 ISZERO PUSH2 0x154D JUMPI PUSH1 0x20 DUP3 ADD DUP2 DUP1 CALLDATASIZE DUP4 CALLDATACOPY ADD SWAP1 POP JUMPDEST POP SWAP1 POP DUP2 DUP2 ADD PUSH1 0x20 ADD JUMPDEST PUSH1 0x0 NOT ADD PUSH16 0x181899199A1A9B1B9C1CB0B131B232B3 PUSH1 0x81 SHL PUSH1 0xA DUP7 MOD BYTE DUP2 MSTORE8 PUSH1 0xA DUP6 DIV SWAP5 POP DUP5 PUSH2 0x1586 JUMPI PUSH2 0x158B JUMP JUMPDEST PUSH2 0x1557 JUMP JUMPDEST POP SWAP4 SWAP3 POP POP POP JUMP JUMPDEST PUSH1 0x80 DUP4 ADD MLOAD PUSH2 0x15A2 SWAP1 DUP4 PUSH2 0x180E JUMP JUMPDEST PUSH1 0x80 DUP4 ADD MLOAD PUSH2 0x799 SWAP1 DUP3 PUSH2 0x180E JUMP JUMPDEST PUSH1 0x80 DUP4 ADD MLOAD PUSH2 0x15C0 SWAP1 DUP4 PUSH2 0x180E JUMP JUMPDEST PUSH1 0x80 DUP4 ADD MLOAD PUSH2 0x799 SWAP1 DUP3 PUSH2 0x1825 JUMP JUMPDEST PUSH1 0x3 SLOAD PUSH1 0x0 SWAP1 PUSH2 0x15E9 SWAP1 PUSH1 0x1 PUSH1 0x1 PUSH1 0xA0 SHL SUB AND DUP5 DUP5 PUSH2 0x1888 JUMP JUMPDEST SWAP4 SWAP3 POP POP POP JUMP JUMPDEST PUSH1 0x6 SLOAD PUSH1 0x1 PUSH1 0x1 PUSH1 0xA0 SHL SUB AND CALLER EQ PUSH2 0x1643 JUMPI PUSH1 0x40 MLOAD PUSH3 0x461BCD PUSH1 0xE5 SHL DUP2 MSTORE PUSH1 0x20 PUSH1 0x4 DUP3 ADD MSTORE PUSH1 0x16 PUSH1 0x24 DUP3 ADD MSTORE PUSH22 0x27B7363C9031B0B63630B1363290313C9037BBB732B9 PUSH1 0x51 SHL PUSH1 0x44 DUP3 ADD MSTORE PUSH1 0x64 ADD PUSH2 0x33D JUMP JUMPDEST JUMP JUMPDEST PUSH1 0x1 PUSH1 0x1 PUSH1 0xA0 SHL SUB DUP2 AND CALLER EQ ISZERO PUSH2 0x169E JUMPI PUSH1 0x40 MLOAD PUSH3 0x461BCD PUSH1 0xE5 SHL DUP2 MSTORE PUSH1 0x20 PUSH1 0x4 DUP3 ADD MSTORE PUSH1 0x17 PUSH1 0x24 DUP3 ADD MSTORE PUSH32 0x43616E6E6F74207472616E7366657220746F2073656C66000000000000000000 PUSH1 0x44 DUP3 ADD MSTORE PUSH1 0x64 ADD PUSH2 0x33D JUMP JUMPDEST PUSH1 0x7 DUP1 SLOAD PUSH1 0x1 PUSH1 0x1 PUSH1 0xA0 SHL SUB NOT AND PUSH1 0x1 PUSH1 0x1 PUSH1 0xA0 SHL SUB DUP4 DUP2 AND SWAP2 DUP3 OR SWAP1 SWAP3 SSTORE PUSH1 0x6 SLOAD PUSH1 0x40 MLOAD SWAP2 SWAP3 AND SWAP1 PUSH32 0xED8889F560326EB138920D842192F0EB3DD22B4F139C87A2C57538E05BAE1278 SWAP1 PUSH1 0x0 SWAP1 LOG3 POP JUMP JUMPDEST PUSH2 0x16F8 PUSH2 0x1FBD JUMP JUMPDEST PUSH2 0x1708 DUP6 PUSH1 0x80 ADD MLOAD PUSH2 0x100 PUSH2 0x191B JUMP JUMPDEST POP POP DUP3 DUP5 MSTORE PUSH1 0x1 PUSH1 0x1 PUSH1 0xA0 SHL SUB DUP3 AND PUSH1 0x20 DUP6 ADD MSTORE PUSH1 0x1 PUSH1 0x1 PUSH1 0xE0 SHL SUB NOT DUP2 AND PUSH1 0x40 DUP6 ADD MSTORE DUP4 JUMPDEST SWAP5 SWAP4 POP POP POP POP JUMP JUMPDEST PUSH1 0x0 DUP1 PUSH19 0x184F03E93FF9F4DAA797ED6E38ED64BF6A1F01 PUSH1 0x40 SHL DUP4 LT PUSH2 0x1775 JUMPI PUSH19 0x184F03E93FF9F4DAA797ED6E38ED64BF6A1F01 PUSH1 0x40 SHL DUP4 DIV SWAP3 POP PUSH1 0x40 ADD JUMPDEST PUSH14 0x4EE2D6D415B85ACEF8100000000 DUP4 LT PUSH2 0x17A1 JUMPI PUSH14 0x4EE2D6D415B85ACEF8100000000 DUP4 DIV SWAP3 POP PUSH1 0x20 ADD JUMPDEST PUSH7 0x2386F26FC10000 DUP4 LT PUSH2 0x17BF JUMPI PUSH7 0x2386F26FC10000 DUP4 DIV SWAP3 POP PUSH1 0x10 ADD JUMPDEST PUSH4 0x5F5E100 DUP4 LT PUSH2 0x17D7 JUMPI PUSH4 0x5F5E100 DUP4 DIV SWAP3 POP PUSH1 0x8 ADD JUMPDEST PUSH2 0x2710 DUP4 LT PUSH2 0x17EB JUMPI PUSH2 0x2710 DUP4 DIV SWAP3 POP PUSH1 0x4 ADD JUMPDEST PUSH1 0x64 DUP4 LT PUSH2 0x17FD JUMPI PUSH1 0x64 DUP4 DIV SWAP3 POP PUSH1 0x2 ADD JUMPDEST PUSH1 0xA DUP4 LT PUSH2 0x595 JUMPI PUSH1 0x1 ADD SWAP3 SWAP2 POP POP JUMP JUMPDEST PUSH2 0x181B DUP3 PUSH1 0x3 DUP4 MLOAD PUSH2 0x1980 JUMP JUMPDEST PUSH2 0x799 DUP3 DUP3 PUSH2 0x1A87 JUMP JUMPDEST PUSH8 0xFFFFFFFFFFFFFFFF NOT DUP2 SLT ISZERO PUSH2 0x1844 JUMPI PUSH2 0x1840 DUP3 DUP3 PUSH2 0x1AAE JUMP JUMPDEST POP POP JUMP JUMPDEST PUSH1 0x1 PUSH1 0x1 PUSH1 0x40 SHL SUB DUP2 SGT ISZERO PUSH2 0x185D JUMPI PUSH2 0x1840 DUP3 DUP3 PUSH2 0x1AF0 JUMP JUMPDEST PUSH1 0x0 DUP2 SLT PUSH2 0x1871 JUMPI PUSH2 0x1840 DUP3 PUSH1 0x0 DUP4 PUSH2 0x1980 JUMP JUMPDEST PUSH2 0x1840 DUP3 PUSH1 0x1 PUSH2 0x1883 DUP5 PUSH1 0x0 NOT PUSH2 0x26AB JUMP JUMPDEST PUSH2 0x1980 JUMP JUMPDEST PUSH1 0x4 SLOAD PUSH1 0x0 SWAP1 PUSH2 0x1899 DUP2 PUSH1 0x1 PUSH2 0x25F7 JUMP JUMPDEST PUSH1 0x4 SSTORE DUP4 MLOAD PUSH1 0x40 DUP1 DUP7 ADD MLOAD PUSH1 0x80 DUP8 ADD MLOAD MLOAD SWAP2 MLOAD PUSH1 0x0 SWAP4 PUSH4 0x20214CA3 PUSH1 0xE1 SHL SWAP4 PUSH2 0x18D1 SWAP4 DUP7 SWAP4 DUP5 SWAP4 SWAP3 ADDRESS SWAP3 SWAP2 DUP11 SWAP2 PUSH1 0x1 SWAP2 PUSH1 0x24 ADD PUSH2 0x26EA JUMP JUMPDEST PUSH1 0x40 DUP1 MLOAD PUSH1 0x1F NOT DUP2 DUP5 SUB ADD DUP2 MSTORE SWAP2 SWAP1 MSTORE PUSH1 0x20 DUP2 ADD DUP1 MLOAD PUSH1 0x1 PUSH1 0x1 PUSH1 0xE0 SHL SUB AND PUSH1 0x1 PUSH1 0x1 PUSH1 0xE0 SHL SUB NOT SWAP1 SWAP4 AND SWAP3 SWAP1 SWAP3 OR SWAP1 SWAP2 MSTORE SWAP1 POP PUSH2 0x1911 DUP7 DUP4 DUP7 DUP5 PUSH2 0x1B13 JUMP JUMPDEST SWAP7 SWAP6 POP POP POP POP POP POP JUMP JUMPDEST PUSH1 0x40 DUP1 MLOAD DUP1 DUP3 ADD SWAP1 SWAP2 MSTORE PUSH1 0x60 DUP2 MSTORE PUSH1 0x0 PUSH1 0x20 DUP3 ADD MSTORE PUSH2 0x193B PUSH1 0x20 DUP4 PUSH2 0x2752 JUMP JUMPDEST ISZERO PUSH2 0x1963 JUMPI PUSH2 0x194B PUSH1 0x20 DUP4 PUSH2 0x2752 JUMP JUMPDEST PUSH2 0x1956 SWAP1 PUSH1 0x20 PUSH2 0x25E0 JUMP JUMPDEST PUSH2 0x1960 SWAP1 DUP4 PUSH2 0x25F7 JUMP JUMPDEST SWAP2 POP JUMPDEST POP PUSH1 0x20 DUP3 DUP2 ADD DUP3 SWAP1 MSTORE PUSH1 0x40 DUP1 MLOAD DUP1 DUP6 MSTORE PUSH1 0x0 DUP2 MSTORE SWAP1 SWAP3 ADD ADD SWAP1 MSTORE SWAP1 JUMP JUMPDEST PUSH1 0x17 DUP2 PUSH1 0x1 PUSH1 0x1 PUSH1 0x40 SHL SUB AND GT PUSH2 0x19A4 JUMPI PUSH2 0x9C7 DUP4 PUSH1 0xE0 PUSH1 0x5 DUP6 SWAP1 SHL AND DUP4 OR PUSH2 0x1C71 JUMP JUMPDEST PUSH1 0xFF DUP2 PUSH1 0x1 PUSH1 0x1 PUSH1 0x40 SHL SUB AND GT PUSH2 0x19E0 JUMPI PUSH2 0x19CA DUP4 PUSH1 0x18 PUSH2 0x1FE0 PUSH1 0x5 DUP7 SWAP1 SHL AND OR PUSH2 0x1C71 JUMP JUMPDEST POP PUSH2 0x9C7 DUP4 PUSH1 0x1 PUSH1 0x1 PUSH1 0x40 SHL SUB DUP4 AND PUSH1 0x1 PUSH2 0x1C96 JUMP JUMPDEST PUSH2 0xFFFF DUP2 PUSH1 0x1 PUSH1 0x1 PUSH1 0x40 SHL SUB AND GT PUSH2 0x1A1D JUMPI PUSH2 0x1A07 DUP4 PUSH1 0x19 PUSH2 0x1FE0 PUSH1 0x5 DUP7 SWAP1 SHL AND OR PUSH2 0x1C71 JUMP JUMPDEST POP PUSH2 0x9C7 DUP4 PUSH1 0x1 PUSH1 0x1 PUSH1 0x40 SHL SUB DUP4 AND PUSH1 0x2 PUSH2 0x1C96 JUMP JUMPDEST PUSH4 0xFFFFFFFF DUP2 PUSH1 0x1 PUSH1 0x1 PUSH1 0x40 SHL SUB AND GT PUSH2 0x1A5C JUMPI PUSH2 0x1A46 DUP4 PUSH1 0x1A PUSH2 0x1FE0 PUSH1 0x5 DUP7 SWAP1 SHL AND OR PUSH2 0x1C71 JUMP JUMPDEST POP PUSH2 0x9C7 DUP4 PUSH1 0x1 PUSH1 0x1 PUSH1 0x40 SHL SUB DUP4 AND PUSH1 0x4 PUSH2 0x1C96 JUMP JUMPDEST PUSH2 0x1A71 DUP4 PUSH1 0x1B PUSH2 0x1FE0 PUSH1 0x5 DUP7 SWAP1 SHL AND OR PUSH2 0x1C71 JUMP JUMPDEST POP PUSH2 0x9C7 DUP4 PUSH1 0x1 PUSH1 0x1 PUSH1 0x40 SHL SUB DUP4 AND PUSH1 0x8 PUSH2 0x1C96 JUMP JUMPDEST PUSH1 0x40 DUP1 MLOAD DUP1 DUP3 ADD SWAP1 SWAP2 MSTORE PUSH1 0x60 DUP2 MSTORE PUSH1 0x0 PUSH1 0x20 DUP3 ADD MSTORE PUSH2 0x15E9 DUP4 DUP5 PUSH1 0x0 ADD MLOAD MLOAD DUP5 DUP6 MLOAD PUSH2 0x1CBC JUMP JUMPDEST PUSH2 0x1AB9 DUP3 PUSH1 0xC3 PUSH2 0x1C71 JUMP JUMPDEST POP PUSH2 0x1840 DUP3 PUSH2 0x1ACA DUP4 PUSH1 0x0 NOT PUSH2 0x26AB JUMP JUMPDEST PUSH1 0x40 MLOAD PUSH1 0x20 ADD PUSH2 0x1ADC SWAP2 DUP2 MSTORE PUSH1 0x20 ADD SWAP1 JUMP JUMPDEST PUSH1 0x40 MLOAD PUSH1 0x20 DUP2 DUP4 SUB SUB DUP2 MSTORE SWAP1 PUSH1 0x40 MSTORE PUSH2 0x1DA6 JUMP JUMPDEST PUSH2 0x1AFB DUP3 PUSH1 0xC2 PUSH2 0x1C71 JUMP JUMPDEST POP PUSH2 0x1840 DUP3 DUP3 PUSH1 0x40 MLOAD PUSH1 0x20 ADD PUSH2 0x1ADC SWAP2 DUP2 MSTORE PUSH1 0x20 ADD SWAP1 JUMP JUMPDEST PUSH1 0x40 MLOAD PUSH12 0xFFFFFFFFFFFFFFFFFFFFFFFF NOT ADDRESS PUSH1 0x60 SHL AND PUSH1 0x20 DUP3 ADD MSTORE PUSH1 0x34 DUP2 ADD DUP5 SWAP1 MSTORE PUSH1 0x0 SWAP1 PUSH1 0x54 ADD PUSH1 0x40 DUP1 MLOAD DUP1 DUP4 SUB PUSH1 0x1F NOT ADD DUP2 MSTORE DUP3 DUP3 MSTORE DUP1 MLOAD PUSH1 0x20 SWAP2 DUP3 ADD KECCAK256 PUSH1 0x0 DUP2 DUP2 MSTORE PUSH1 0x5 SWAP1 SWAP3 MSTORE SWAP2 DUP2 KECCAK256 DUP1 SLOAD PUSH1 0x1 PUSH1 0x1 PUSH1 0xA0 SHL SUB NOT AND PUSH1 0x1 PUSH1 0x1 PUSH1 0xA0 SHL SUB DUP11 AND OR SWAP1 SSTORE SWAP1 SWAP3 POP DUP3 SWAP2 PUSH32 0xB5E6E01E79F91267DC17B4E6314D5D4D03593D2CEEE0FBB452B750BD70EA5AF9 SWAP2 SWAP1 LOG2 PUSH1 0x2 SLOAD PUSH1 0x40 MLOAD PUSH4 0x2000575 PUSH1 0xE5 SHL DUP2 MSTORE PUSH1 0x1 PUSH1 0x1 PUSH1 0xA0 SHL SUB SWAP1 SWAP2 AND SWAP1 PUSH4 0x4000AEA0 SWAP1 PUSH2 0x1BD6 SWAP1 DUP9 SWAP1 DUP8 SWAP1 DUP8 SWAP1 PUSH1 0x4 ADD PUSH2 0x2774 JUMP JUMPDEST PUSH1 0x20 PUSH1 0x40 MLOAD DUP1 DUP4 SUB DUP2 PUSH1 0x0 DUP8 GAS CALL ISZERO DUP1 ISZERO PUSH2 0x1BF5 JUMPI RETURNDATASIZE PUSH1 0x0 DUP1 RETURNDATACOPY RETURNDATASIZE PUSH1 0x0 REVERT JUMPDEST POP POP POP POP PUSH1 0x40 MLOAD RETURNDATASIZE PUSH1 0x1F NOT PUSH1 0x1F DUP3 ADD AND DUP3 ADD DUP1 PUSH1 0x40 MSTORE POP DUP2 ADD SWAP1 PUSH2 0x1C19 SWAP2 SWAP1 PUSH2 0x25AD JUMP JUMPDEST PUSH2 0x172E JUMPI PUSH1 0x40 MLOAD PUSH3 0x461BCD PUSH1 0xE5 SHL DUP2 MSTORE PUSH1 0x20 PUSH1 0x4 DUP3 ADD MSTORE PUSH1 0x23 PUSH1 0x24 DUP3 ADD MSTORE PUSH32 0x756E61626C6520746F207472616E73666572416E6443616C6C20746F206F7261 PUSH1 0x44 DUP3 ADD MSTORE PUSH3 0x636C65 PUSH1 0xE8 SHL PUSH1 0x64 DUP3 ADD MSTORE PUSH1 0x84 ADD PUSH2 0x33D JUMP JUMPDEST PUSH1 0x40 DUP1 MLOAD DUP1 DUP3 ADD SWAP1 SWAP2 MSTORE PUSH1 0x60 DUP2 MSTORE PUSH1 0x0 PUSH1 0x20 DUP3 ADD MSTORE PUSH2 0x15E9 DUP4 DUP5 PUSH1 0x0 ADD MLOAD MLOAD DUP5 PUSH2 0x1DB3 JUMP JUMPDEST PUSH1 0x40 DUP1 MLOAD DUP1 DUP3 ADD SWAP1 SWAP2 MSTORE PUSH1 0x60 DUP2 MSTORE PUSH1 0x0 PUSH1 0x20 DUP3 ADD MSTORE PUSH2 0x172E DUP5 DUP6 PUSH1 0x0 ADD MLOAD MLOAD DUP6 DUP6 PUSH2 0x1E0F JUMP JUMPDEST PUSH1 0x40 DUP1 MLOAD DUP1 DUP3 ADD SWAP1 SWAP2 MSTORE PUSH1 0x60 DUP2 MSTORE PUSH1 0x0 PUSH1 0x20 DUP3 ADD MSTORE DUP3 MLOAD DUP3 GT ISZERO PUSH2 0x1CDF JUMPI PUSH1 0x0 DUP1 REVERT JUMPDEST PUSH1 0x20 DUP6 ADD MLOAD PUSH2 0x1CEE DUP4 DUP7 PUSH2 0x25F7 JUMP JUMPDEST GT ISZERO PUSH2 0x1D21 JUMPI PUSH2 0x1D21 DUP6 PUSH2 0x1D11 DUP8 PUSH1 0x20 ADD MLOAD DUP8 DUP7 PUSH2 0x1D0C SWAP2 SWAP1 PUSH2 0x25F7 JUMP JUMPDEST PUSH2 0x1E90 JUMP JUMPDEST PUSH2 0x1D1C SWAP1 PUSH1 0x2 PUSH2 0x279B JUMP JUMPDEST PUSH2 0x1EA7 JUMP JUMPDEST PUSH1 0x0 DUP1 DUP7 MLOAD DUP1 MLOAD DUP8 PUSH1 0x20 DUP4 ADD ADD SWAP4 POP DUP1 DUP9 DUP8 ADD GT ISZERO PUSH2 0x1D40 JUMPI DUP8 DUP7 ADD DUP3 MSTORE JUMPDEST POP POP POP PUSH1 0x20 DUP5 ADD JUMPDEST PUSH1 0x20 DUP5 LT PUSH2 0x1D80 JUMPI DUP1 MLOAD DUP3 MSTORE PUSH2 0x1D5F PUSH1 0x20 DUP4 PUSH2 0x25F7 JUMP JUMPDEST SWAP2 POP PUSH2 0x1D6C PUSH1 0x20 DUP3 PUSH2 0x25F7 JUMP JUMPDEST SWAP1 POP PUSH2 0x1D79 PUSH1 0x20 DUP6 PUSH2 0x25E0 JUMP JUMPDEST SWAP4 POP PUSH2 0x1D48 JUMP JUMPDEST MLOAD DUP2 MLOAD PUSH1 0x0 NOT PUSH1 0x20 DUP7 SWAP1 SUB PUSH2 0x100 EXP ADD SWAP1 DUP2 AND SWAP1 NOT SWAP2 SWAP1 SWAP2 AND OR SWAP1 MSTORE POP DUP4 SWAP5 SWAP4 POP POP POP POP JUMP JUMPDEST PUSH2 0x181B DUP3 PUSH1 0x2 DUP4 MLOAD PUSH2 0x1980 JUMP JUMPDEST PUSH1 0x40 DUP1 MLOAD DUP1 DUP3 ADD SWAP1 SWAP2 MSTORE PUSH1 0x60 DUP2 MSTORE PUSH1 0x0 PUSH1 0x20 DUP3 ADD MSTORE DUP4 PUSH1 0x20 ADD MLOAD DUP4 LT PUSH2 0x1DE8 JUMPI PUSH2 0x1DE8 DUP5 DUP6 PUSH1 0x20 ADD MLOAD PUSH1 0x2 PUSH2 0x1D1C SWAP2 SWAP1 PUSH2 0x279B JUMP JUMPDEST DUP4 MLOAD DUP1 MLOAD PUSH1 0x20 DUP6 DUP4 ADD ADD DUP5 DUP2 MSTORE8 POP DUP1 DUP6 EQ ISZERO PUSH2 0x1E05 JUMPI PUSH1 0x1 DUP2 ADD DUP3 MSTORE JUMPDEST POP SWAP4 SWAP5 SWAP4 POP POP POP POP JUMP JUMPDEST PUSH1 0x40 DUP1 MLOAD DUP1 DUP3 ADD SWAP1 SWAP2 MSTORE PUSH1 0x60 DUP2 MSTORE PUSH1 0x0 PUSH1 0x20 DUP3 ADD MSTORE PUSH1 0x20 DUP6 ADD MLOAD PUSH2 0x1E33 DUP6 DUP5 PUSH2 0x25F7 JUMP JUMPDEST GT ISZERO PUSH2 0x1E47 JUMPI PUSH2 0x1E47 DUP6 PUSH2 0x1D11 DUP7 DUP6 PUSH2 0x25F7 JUMP JUMPDEST PUSH1 0x0 PUSH1 0x1 PUSH2 0x1E57 DUP5 PUSH2 0x100 PUSH2 0x289E JUMP JUMPDEST PUSH2 0x1E61 SWAP2 SWAP1 PUSH2 0x25E0 JUMP JUMPDEST SWAP1 POP DUP6 MLOAD DUP4 DUP7 DUP3 ADD ADD DUP6 DUP4 NOT DUP3 MLOAD AND OR DUP2 MSTORE POP DUP1 MLOAD DUP5 DUP8 ADD GT ISZERO PUSH2 0x1E85 JUMPI DUP4 DUP7 ADD DUP2 MSTORE JUMPDEST POP SWAP5 SWAP6 SWAP5 POP POP POP POP POP JUMP JUMPDEST PUSH1 0x0 DUP2 DUP4 GT ISZERO PUSH2 0x1EA1 JUMPI POP DUP2 PUSH2 0x595 JUMP JUMPDEST POP SWAP2 SWAP1 POP JUMP JUMPDEST DUP2 MLOAD PUSH2 0x1EB3 DUP4 DUP4 PUSH2 0x191B JUMP JUMPDEST POP PUSH2 0x9C7 DUP4 DUP3 PUSH2 0x1A87 JUMP JUMPDEST DUP3 DUP1 SLOAD PUSH2 0x1ECA SWAP1 PUSH2 0x240C JUMP JUMPDEST SWAP1 PUSH1 0x0 MSTORE PUSH1 0x20 PUSH1 0x0 KECCAK256 SWAP1 PUSH1 0x1F ADD PUSH1 0x20 SWAP1 DIV DUP2 ADD SWAP3 DUP3 PUSH2 0x1EEC JUMPI PUSH1 0x0 DUP6 SSTORE PUSH2 0x1F32 JUMP JUMPDEST DUP3 PUSH1 0x1F LT PUSH2 0x1F05 JUMPI DUP1 MLOAD PUSH1 0xFF NOT AND DUP4 DUP1 ADD OR DUP6 SSTORE PUSH2 0x1F32 JUMP JUMPDEST DUP3 DUP1 ADD PUSH1 0x1 ADD DUP6 SSTORE DUP3 ISZERO PUSH2 0x1F32 JUMPI SWAP2 DUP3 ADD JUMPDEST DUP3 DUP2 GT ISZERO PUSH2 0x1F32 JUMPI DUP3 MLOAD DUP3 SSTORE SWAP2 PUSH1 0x20 ADD SWAP2 SWAP1 PUSH1 0x1 ADD SWAP1 PUSH2 0x1F17 JUMP JUMPDEST POP PUSH2 0x1F3E SWAP3 SWAP2 POP PUSH2 0x1FF8 JUMP JUMPDEST POP SWAP1 JUMP JUMPDEST DUP3 DUP1 SLOAD PUSH2 0x1F4E SWAP1 PUSH2 0x240C JUMP JUMPDEST SWAP1 PUSH1 0x0 MSTORE PUSH1 0x20 PUSH1 0x0 KECCAK256 SWAP1 PUSH1 0x1F ADD PUSH1 0x20 SWAP1 DIV DUP2 ADD SWAP3 DUP3 PUSH2 0x1F70 JUMPI PUSH1 0x0 DUP6 SSTORE PUSH2 0x1F32 JUMP JUMPDEST DUP3 PUSH1 0x1F LT PUSH2 0x1F81 JUMPI DUP1 SLOAD DUP6 SSTORE PUSH2 0x1F32 JUMP JUMPDEST DUP3 DUP1 ADD PUSH1 0x1 ADD DUP6 SSTORE DUP3 ISZERO PUSH2 0x1F32 JUMPI PUSH1 0x0 MSTORE PUSH1 0x20 PUSH1 0x0 KECCAK256 SWAP2 PUSH1 0x1F ADD PUSH1 0x20 SWAP1 DIV DUP3 ADD JUMPDEST DUP3 DUP2 GT ISZERO PUSH2 0x1F32 JUMPI DUP3 SLOAD DUP3 SSTORE SWAP2 PUSH1 0x1 ADD SWAP2 SWAP1 PUSH1 0x1 ADD SWAP1 PUSH2 0x1FA2 JUMP JUMPDEST PUSH1 0x40 DUP1 MLOAD PUSH1 0xA0 DUP2 ADD DUP3 MSTORE PUSH1 0x0 DUP1 DUP3 MSTORE PUSH1 0x20 DUP1 DUP4 ADD DUP3 SWAP1 MSTORE DUP3 DUP5 ADD DUP3 SWAP1 MSTORE PUSH1 0x60 DUP1 DUP5 ADD DUP4 SWAP1 MSTORE DUP5 MLOAD DUP1 DUP7 ADD SWAP1 SWAP6 MSTORE DUP5 MSTORE DUP4 ADD MSTORE SWAP1 PUSH1 0x80 DUP3 ADD MSTORE SWAP1 JUMP JUMPDEST JUMPDEST DUP1 DUP3 GT ISZERO PUSH2 0x1F3E JUMPI PUSH1 0x0 DUP2 SSTORE PUSH1 0x1 ADD PUSH2 0x1FF9 JUMP JUMPDEST PUSH1 0x0 PUSH1 0x20 DUP3 DUP5 SUB SLT ISZERO PUSH2 0x201F JUMPI PUSH1 0x0 DUP1 REVERT JUMPDEST POP CALLDATALOAD SWAP2 SWAP1 POP JUMP JUMPDEST PUSH1 0x0 JUMPDEST DUP4 DUP2 LT ISZERO PUSH2 0x2041 JUMPI DUP2 DUP2 ADD MLOAD DUP4 DUP3 ADD MSTORE PUSH1 0x20 ADD PUSH2 0x2029 JUMP JUMPDEST DUP4 DUP2 GT ISZERO PUSH2 0x9C7 JUMPI POP POP PUSH1 0x0 SWAP2 ADD MSTORE JUMP JUMPDEST PUSH1 0x0 DUP2 MLOAD DUP1 DUP5 MSTORE PUSH2 0x206A DUP2 PUSH1 0x20 DUP7 ADD PUSH1 0x20 DUP7 ADD PUSH2 0x2026 JUMP JUMPDEST PUSH1 0x1F ADD PUSH1 0x1F NOT AND SWAP3 SWAP1 SWAP3 ADD PUSH1 0x20 ADD SWAP3 SWAP2 POP POP JUMP JUMPDEST PUSH1 0x0 PUSH1 0x20 DUP1 DUP4 MSTORE PUSH1 0xC0 DUP4 ADD DUP5 MLOAD DUP3 DUP6 ADD MSTORE DUP2 DUP6 ADD MLOAD PUSH1 0x40 DUP2 DUP2 DUP8 ADD MSTORE DUP1 DUP8 ADD MLOAD SWAP2 POP PUSH1 0x60 DUP3 ISZERO ISZERO DUP2 DUP9 ADD MSTORE DUP1 DUP9 ADD MLOAD SWAP3 POP PUSH1 0xA0 PUSH1 0x80 DUP9 ADD MSTORE DUP4 DUP4 MLOAD DUP1 DUP7 MSTORE PUSH1 0xE0 DUP10 ADD SWAP2 POP PUSH1 0xE0 DUP2 PUSH1 0x5 SHL DUP11 ADD ADD SWAP6 POP DUP7 DUP6 ADD SWAP5 POP PUSH1 0x0 JUMPDEST DUP2 DUP2 LT ISZERO PUSH2 0x212D JUMPI DUP10 DUP8 SUB PUSH1 0xDF NOT ADD DUP4 MSTORE DUP6 MLOAD DUP1 MLOAD DUP6 DUP10 MSTORE PUSH2 0x20F9 DUP7 DUP11 ADD DUP3 PUSH2 0x2052 JUMP JUMPDEST DUP3 DUP12 ADD MLOAD DUP11 DUP13 ADD MSTORE SWAP2 DUP8 ADD MLOAD DUP10 DUP4 SUB DUP9 DUP12 ADD MSTORE SWAP2 SWAP1 POP PUSH2 0x2119 DUP2 DUP4 PUSH2 0x2052 JUMP JUMPDEST SWAP9 POP POP POP SWAP5 DUP8 ADD SWAP5 SWAP2 DUP8 ADD SWAP2 PUSH1 0x1 ADD PUSH2 0x20D5 JUMP JUMPDEST POP POP POP POP POP POP PUSH1 0x80 DUP6 ADD MLOAD SWAP2 POP PUSH2 0x172E PUSH1 0xA0 DUP6 ADD DUP4 ISZERO ISZERO SWAP1 MSTORE JUMP JUMPDEST PUSH4 0x4E487B71 PUSH1 0xE0 SHL PUSH1 0x0 MSTORE PUSH1 0x41 PUSH1 0x4 MSTORE PUSH1 0x24 PUSH1 0x0 REVERT JUMPDEST PUSH1 0x0 DUP3 PUSH1 0x1F DUP4 ADD SLT PUSH2 0x216F JUMPI PUSH1 0x0 DUP1 REVERT JUMPDEST DUP2 CALLDATALOAD PUSH1 0x1 PUSH1 0x1 PUSH1 0x40 SHL SUB DUP1 DUP3 GT ISZERO PUSH2 0x2189 JUMPI PUSH2 0x2189 PUSH2 0x2148 JUMP JUMPDEST PUSH1 0x40 MLOAD PUSH1 0x1F DUP4 ADD PUSH1 0x1F NOT SWAP1 DUP2 AND PUSH1 0x3F ADD AND DUP2 ADD SWAP1 DUP3 DUP3 GT DUP2 DUP4 LT OR ISZERO PUSH2 0x21B1 JUMPI PUSH2 0x21B1 PUSH2 0x2148 JUMP JUMPDEST DUP2 PUSH1 0x40 MSTORE DUP4 DUP2 MSTORE DUP7 PUSH1 0x20 DUP6 DUP9 ADD ADD GT ISZERO PUSH2 0x21CA JUMPI PUSH1 0x0 DUP1 REVERT JUMPDEST DUP4 PUSH1 0x20 DUP8 ADD PUSH1 0x20 DUP4 ADD CALLDATACOPY PUSH1 0x0 PUSH1 0x20 DUP6 DUP4 ADD ADD MSTORE DUP1 SWAP5 POP POP POP POP POP SWAP3 SWAP2 POP POP JUMP JUMPDEST PUSH1 0x0 PUSH1 0x20 DUP3 DUP5 SUB SLT ISZERO PUSH2 0x21FC JUMPI PUSH1 0x0 DUP1 REVERT JUMPDEST DUP2 CALLDATALOAD PUSH1 0x1 PUSH1 0x1 PUSH1 0x40 SHL SUB DUP2 GT ISZERO PUSH2 0x2212 JUMPI PUSH1 0x0 DUP1 REVERT JUMPDEST PUSH2 0x172E DUP5 DUP3 DUP6 ADD PUSH2 0x215E JUMP JUMPDEST PUSH1 0x20 DUP2 MSTORE PUSH1 0x0 PUSH2 0x15E9 PUSH1 0x20 DUP4 ADD DUP5 PUSH2 0x2052 JUMP JUMPDEST PUSH1 0x0 DUP1 PUSH1 0x40 DUP4 DUP6 SUB SLT ISZERO PUSH2 0x2244 JUMPI PUSH1 0x0 DUP1 REVERT JUMPDEST POP POP DUP1 CALLDATALOAD SWAP3 PUSH1 0x20 SWAP1 SWAP2 ADD CALLDATALOAD SWAP2 POP JUMP JUMPDEST PUSH1 0x0 DUP1 PUSH1 0x0 PUSH1 0x60 DUP5 DUP7 SUB SLT ISZERO PUSH2 0x2268 JUMPI PUSH1 0x0 DUP1 REVERT JUMPDEST DUP4 CALLDATALOAD SWAP3 POP PUSH1 0x20 DUP5 ADD CALLDATALOAD SWAP2 POP PUSH1 0x40 DUP5 ADD CALLDATALOAD PUSH1 0x1 PUSH1 0x1 PUSH1 0x40 SHL SUB DUP2 GT ISZERO PUSH2 0x228C JUMPI PUSH1 0x0 DUP1 REVERT JUMPDEST PUSH2 0x2298 DUP7 DUP3 DUP8 ADD PUSH2 0x215E JUMP JUMPDEST SWAP2 POP POP SWAP3 POP SWAP3 POP SWAP3 JUMP JUMPDEST PUSH1 0x0 DUP1 PUSH1 0x0 PUSH1 0x60 DUP5 DUP7 SUB SLT ISZERO PUSH2 0x22B7 JUMPI PUSH1 0x0 DUP1 REVERT JUMPDEST DUP4 CALLDATALOAD PUSH1 0x1 PUSH1 0x1 PUSH1 0x40 SHL SUB DUP2 GT ISZERO PUSH2 0x22CD JUMPI PUSH1 0x0 DUP1 REVERT JUMPDEST PUSH2 0x22D9 DUP7 DUP3 DUP8 ADD PUSH2 0x215E JUMP JUMPDEST SWAP7 PUSH1 0x20 DUP7 ADD CALLDATALOAD SWAP7 POP PUSH1 0x40 SWAP1 SWAP6 ADD CALLDATALOAD SWAP5 SWAP4 POP POP POP POP JUMP JUMPDEST DUP1 ISZERO ISZERO DUP2 EQ PUSH2 0xE76 JUMPI PUSH1 0x0 DUP1 REVERT JUMPDEST PUSH1 0x0 DUP1 PUSH1 0x0 PUSH1 0x60 DUP5 DUP7 SUB SLT ISZERO PUSH2 0x2312 JUMPI PUSH1 0x0 DUP1 REVERT JUMPDEST DUP4 CALLDATALOAD PUSH1 0x1 PUSH1 0x1 PUSH1 0x40 SHL SUB DUP2 GT ISZERO PUSH2 0x2328 JUMPI PUSH1 0x0 DUP1 REVERT JUMPDEST PUSH2 0x2334 DUP7 DUP3 DUP8 ADD PUSH2 0x215E JUMP JUMPDEST SWAP4 POP POP PUSH1 0x20 DUP5 ADD CALLDATALOAD PUSH2 0x2345 DUP2 PUSH2 0x22EF JUMP JUMPDEST SWAP3 SWAP6 SWAP3 SWAP5 POP POP POP PUSH1 0x40 SWAP2 SWAP1 SWAP2 ADD CALLDATALOAD SWAP1 JUMP JUMPDEST PUSH1 0x0 PUSH1 0x20 DUP3 DUP5 SUB SLT ISZERO PUSH2 0x2368 JUMPI PUSH1 0x0 DUP1 REVERT JUMPDEST DUP2 CALLDATALOAD PUSH1 0x1 PUSH1 0x1 PUSH1 0xA0 SHL SUB DUP2 AND DUP2 EQ PUSH2 0x15E9 JUMPI PUSH1 0x0 DUP1 REVERT JUMPDEST PUSH1 0xA0 DUP2 MSTORE PUSH1 0x0 PUSH2 0x2392 PUSH1 0xA0 DUP4 ADD DUP9 PUSH2 0x2052 JUMP JUMPDEST SWAP6 ISZERO ISZERO PUSH1 0x20 DUP4 ADD MSTORE POP PUSH1 0x40 DUP2 ADD SWAP4 SWAP1 SWAP4 MSTORE PUSH1 0x60 DUP4 ADD SWAP2 SWAP1 SWAP2 MSTORE ISZERO ISZERO PUSH1 0x80 SWAP1 SWAP2 ADD MSTORE SWAP2 SWAP1 POP JUMP JUMPDEST PUSH1 0x20 DUP2 MSTORE PUSH1 0x0 DUP3 MLOAD PUSH1 0xA0 PUSH1 0x20 DUP5 ADD MSTORE PUSH2 0x23D4 PUSH1 0xC0 DUP5 ADD DUP3 PUSH2 0x2052 JUMP JUMPDEST SWAP1 POP PUSH1 0x20 DUP5 ADD MLOAD ISZERO ISZERO PUSH1 0x40 DUP5 ADD MSTORE PUSH1 0x40 DUP5 ADD MLOAD PUSH1 0x60 DUP5 ADD MSTORE PUSH1 0x60 DUP5 ADD MLOAD PUSH1 0x80 DUP5 ADD MSTORE PUSH1 0x80 DUP5 ADD MLOAD ISZERO ISZERO PUSH1 0xA0 DUP5 ADD MSTORE DUP1 SWAP2 POP POP SWAP3 SWAP2 POP POP JUMP JUMPDEST PUSH1 0x1 DUP2 DUP2 SHR SWAP1 DUP3 AND DUP1 PUSH2 0x2420 JUMPI PUSH1 0x7F DUP3 AND SWAP2 POP JUMPDEST PUSH1 0x20 DUP3 LT DUP2 EQ ISZERO PUSH2 0x1EA1 JUMPI PUSH4 0x4E487B71 PUSH1 0xE0 SHL PUSH1 0x0 MSTORE PUSH1 0x22 PUSH1 0x4 MSTORE PUSH1 0x24 PUSH1 0x0 REVERT JUMPDEST PUSH1 0x20 DUP1 DUP3 MSTORE PUSH1 0x23 SWAP1 DUP3 ADD MSTORE PUSH32 0x796F7572206F7267616E697A6174696F6E206973206E6F742072656769737465 PUSH1 0x40 DUP3 ADD MSTORE PUSH3 0x1C9959 PUSH1 0xEA SHL PUSH1 0x60 DUP3 ADD MSTORE PUSH1 0x80 ADD SWAP1 JUMP JUMPDEST PUSH1 0x20 DUP1 DUP3 MSTORE PUSH1 0x21 SWAP1 DUP3 ADD MSTORE PUSH32 0x796F7572206F7267616E697A6174696F6E206973206E6F742076657269666965 PUSH1 0x40 DUP3 ADD MSTORE PUSH1 0x19 PUSH1 0xFA SHL PUSH1 0x60 DUP3 ADD MSTORE PUSH1 0x80 ADD SWAP1 JUMP JUMPDEST PUSH1 0x0 DUP3 MLOAD PUSH2 0x24D7 DUP2 DUP5 PUSH1 0x20 DUP8 ADD PUSH2 0x2026 JUMP JUMPDEST SWAP2 SWAP1 SWAP2 ADD SWAP3 SWAP2 POP POP JUMP JUMPDEST PUSH32 0x68747470733A2F2F7472616E73616374696F6E2D7665726966792E6F6E72656E DUP2 MSTORE PUSH19 0x6465722E636F6D2F7665726966793F74786E3D PUSH1 0x68 SHL PUSH1 0x20 DUP3 ADD MSTORE PUSH1 0x0 DUP5 MLOAD PUSH2 0x2535 DUP2 PUSH1 0x33 DUP6 ADD PUSH1 0x20 DUP10 ADD PUSH2 0x2026 JUMP JUMPDEST PUSH9 0x266163636F756E743D PUSH1 0xB8 SHL PUSH1 0x33 SWAP2 DUP5 ADD SWAP2 DUP3 ADD MSTORE DUP5 MLOAD PUSH2 0x255E DUP2 PUSH1 0x3C DUP5 ADD PUSH1 0x20 DUP10 ADD PUSH2 0x2026 JUMP JUMPDEST PUSH8 0x266161646861723D PUSH1 0xC0 SHL PUSH1 0x3C SWAP3 SWAP1 SWAP2 ADD SWAP2 DUP3 ADD MSTORE DUP4 MLOAD PUSH2 0x2587 DUP2 PUSH1 0x44 DUP5 ADD PUSH1 0x20 DUP9 ADD PUSH2 0x2026 JUMP JUMPDEST ADD PUSH1 0x44 ADD SWAP6 SWAP5 POP POP POP POP POP JUMP JUMPDEST PUSH1 0x0 PUSH1 0x20 DUP3 DUP5 SUB SLT ISZERO PUSH2 0x25A6 JUMPI PUSH1 0x0 DUP1 REVERT JUMPDEST POP MLOAD SWAP2 SWAP1 POP JUMP JUMPDEST PUSH1 0x0 PUSH1 0x20 DUP3 DUP5 SUB SLT ISZERO PUSH2 0x25BF JUMPI PUSH1 0x0 DUP1 REVERT JUMPDEST DUP2 MLOAD PUSH2 0x15E9 DUP2 PUSH2 0x22EF JUMP JUMPDEST PUSH4 0x4E487B71 PUSH1 0xE0 SHL PUSH1 0x0 MSTORE PUSH1 0x11 PUSH1 0x4 MSTORE PUSH1 0x24 PUSH1 0x0 REVERT JUMPDEST PUSH1 0x0 DUP3 DUP3 LT ISZERO PUSH2 0x25F2 JUMPI PUSH2 0x25F2 PUSH2 0x25CA JUMP JUMPDEST POP SUB SWAP1 JUMP JUMPDEST PUSH1 0x0 DUP3 NOT DUP3 GT ISZERO PUSH2 0x260A JUMPI PUSH2 0x260A PUSH2 0x25CA JUMP JUMPDEST POP ADD SWAP1 JUMP JUMPDEST PUSH1 0x0 DUP1 DUP4 SLOAD DUP2 PUSH1 0x1 DUP3 DUP2 SHR SWAP2 POP DUP1 DUP4 AND DUP1 PUSH2 0x262B JUMPI PUSH1 0x7F DUP4 AND SWAP3 POP JUMPDEST PUSH1 0x20 DUP1 DUP5 LT DUP3 EQ ISZERO PUSH2 0x264B JUMPI PUSH4 0x4E487B71 PUSH1 0xE0 SHL DUP7 MSTORE PUSH1 0x22 PUSH1 0x4 MSTORE PUSH1 0x24 DUP7 REVERT JUMPDEST DUP2 DUP1 ISZERO PUSH2 0x265F JUMPI PUSH1 0x1 DUP2 EQ PUSH2 0x2670 JUMPI PUSH2 0x269D JUMP JUMPDEST PUSH1 0xFF NOT DUP7 AND DUP10 MSTORE DUP5 DUP10 ADD SWAP7 POP PUSH2 0x269D JUMP JUMPDEST PUSH1 0x0 DUP11 DUP2 MSTORE PUSH1 0x20 SWAP1 KECCAK256 PUSH1 0x0 JUMPDEST DUP7 DUP2 LT ISZERO PUSH2 0x2695 JUMPI DUP2 SLOAD DUP12 DUP3 ADD MSTORE SWAP1 DUP6 ADD SWAP1 DUP4 ADD PUSH2 0x267C JUMP JUMPDEST POP POP DUP5 DUP10 ADD SWAP7 POP JUMPDEST POP SWAP5 SWAP9 SWAP8 POP POP POP POP POP POP POP POP JUMP JUMPDEST PUSH1 0x0 DUP1 DUP4 SLT DUP1 ISZERO PUSH1 0x1 PUSH1 0xFF SHL DUP6 ADD DUP5 SLT AND ISZERO PUSH2 0x26C9 JUMPI PUSH2 0x26C9 PUSH2 0x25CA JUMP JUMPDEST PUSH1 0x1 PUSH1 0x1 PUSH1 0xFF SHL SUB DUP5 ADD DUP4 SGT DUP2 AND ISZERO PUSH2 0x26E4 JUMPI PUSH2 0x26E4 PUSH2 0x25CA JUMP JUMPDEST POP POP SUB SWAP1 JUMP JUMPDEST PUSH1 0x1 PUSH1 0x1 PUSH1 0xA0 SHL SUB DUP10 DUP2 AND DUP3 MSTORE PUSH1 0x20 DUP3 ADD DUP10 SWAP1 MSTORE PUSH1 0x40 DUP3 ADD DUP9 SWAP1 MSTORE DUP7 AND PUSH1 0x60 DUP3 ADD MSTORE PUSH1 0x1 PUSH1 0x1 PUSH1 0xE0 SHL SUB NOT DUP6 AND PUSH1 0x80 DUP3 ADD MSTORE PUSH1 0xA0 DUP2 ADD DUP5 SWAP1 MSTORE PUSH1 0xC0 DUP2 ADD DUP4 SWAP1 MSTORE PUSH2 0x100 PUSH1 0xE0 DUP3 ADD DUP2 SWAP1 MSTORE PUSH1 0x0 SWAP1 PUSH2 0x2743 DUP4 DUP3 ADD DUP6 PUSH2 0x2052 JUMP JUMPDEST SWAP12 SWAP11 POP POP POP POP POP POP POP POP POP POP POP JUMP JUMPDEST PUSH1 0x0 DUP3 PUSH2 0x276F JUMPI PUSH4 0x4E487B71 PUSH1 0xE0 SHL PUSH1 0x0 MSTORE PUSH1 0x12 PUSH1 0x4 MSTORE PUSH1 0x24 PUSH1 0x0 REVERT JUMPDEST POP MOD SWAP1 JUMP JUMPDEST PUSH1 0x1 DUP1 PUSH1 0xA0 SHL SUB DUP5 AND DUP2 MSTORE DUP3 PUSH1 0x20 DUP3 ADD MSTORE PUSH1 0x60 PUSH1 0x40 DUP3 ADD MSTORE PUSH1 0x0 PUSH2 0x14EE PUSH1 0x60 DUP4 ADD DUP5 PUSH2 0x2052 JUMP JUMPDEST PUSH1 0x0 DUP2 PUSH1 0x0 NOT DIV DUP4 GT DUP3 ISZERO ISZERO AND ISZERO PUSH2 0x27B5 JUMPI PUSH2 0x27B5 PUSH2 0x25CA JUMP JUMPDEST POP MUL SWAP1 JUMP JUMPDEST PUSH1 0x1 DUP2 DUP2 JUMPDEST DUP1 DUP6 GT ISZERO PUSH2 0x27F5 JUMPI DUP2 PUSH1 0x0 NOT DIV DUP3 GT ISZERO PUSH2 0x27DB JUMPI PUSH2 0x27DB PUSH2 0x25CA JUMP JUMPDEST DUP1 DUP6 AND ISZERO PUSH2 0x27E8 JUMPI SWAP2 DUP2 MUL SWAP2 JUMPDEST SWAP4 DUP5 SHR SWAP4 SWAP1 DUP1 MUL SWAP1 PUSH2 0x27BF JUMP JUMPDEST POP SWAP3 POP SWAP3 SWAP1 POP JUMP JUMPDEST PUSH1 0x0 DUP3 PUSH2 0x280C JUMPI POP PUSH1 0x1 PUSH2 0x595 JUMP JUMPDEST DUP2 PUSH2 0x2819 JUMPI POP PUSH1 0x0 PUSH2 0x595 JUMP JUMPDEST DUP2 PUSH1 0x1 DUP2 EQ PUSH2 0x282F JUMPI PUSH1 0x2 DUP2 EQ PUSH2 0x2839 JUMPI PUSH2 0x2855 JUMP JUMPDEST PUSH1 0x1 SWAP2 POP POP PUSH2 0x595 JUMP JUMPDEST PUSH1 0xFF DUP5 GT ISZERO PUSH2 0x284A JUMPI PUSH2 0x284A PUSH2 0x25CA JUMP JUMPDEST POP POP PUSH1 0x1 DUP3 SHL PUSH2 0x595 JUMP JUMPDEST POP PUSH1 0x20 DUP4 LT PUSH2 0x133 DUP4 LT AND PUSH1 0x4E DUP5 LT PUSH1 0xB DUP5 LT AND OR ISZERO PUSH2 0x2878 JUMPI POP DUP2 DUP2 EXP PUSH2 0x595 JUMP JUMPDEST PUSH2 0x2882 DUP4 DUP4 PUSH2 0x27BA JUMP JUMPDEST DUP1 PUSH1 0x0 NOT DIV DUP3 GT ISZERO PUSH2 0x2896 JUMPI PUSH2 0x2896 PUSH2 0x25CA JUMP JUMPDEST MUL SWAP4 SWAP3 POP POP POP JUMP JUMPDEST PUSH1 0x0 PUSH2 0x15E9 DUP4 DUP4 PUSH2 0x27FD JUMP INVALID LOG2 PUSH5 0x6970667358 0x22 SLT KECCAK256 0xC8 MUL 0xB7 0xAF 0xE8 PUSH8 0x140CC5A7E9B641AE DUP7 NUMBER 0xD 0xD7 DIFFICULTY PUSH5 0xD0C03C93ED PUSH26 0xC2C023C307D164736F6C634300080C0033000000000000000000 "},"methodIdentifiers":{"acceptOwnership()":"79ba5097","fulfill(bytes32,uint256)":"4357855e","getOrganizationDetail(address)":"e5f31715","getStudentDetail(uint256)":"0fe0dc17","lockProfile(uint256)":"93d0bd8f","makeVerificationRequest(string,uint256,uint256)":"50996a65","owner()":"8da5cb5b","registerOrganization(string,bool,uint256)":"593afa1d","registerStudent(uint256,uint256)":"1b75c009","registeredOrganizations(address)":"d3d2a475","registeredStudents(uint256)":"721c522a","transferOwnership(address)":"f2fde38b","txnDoneBy(string)":"158a3825","verifyOrganization(address)":"6d567acd","verifyPayment(uint256,uint256,string)":"4d92116e","volume()":"c618a1e4","withdrawLink()":"8dc654a2"}}}}}