{
  "_format": "hh-sol-artifact-1",
  "contractName": "ScholorshipPortal",
  "sourceName": "contracts/ScholorshipPortal.sol",
  "abi": [
    {
      "inputs": [],
      "stateMutability": "nonpayable",
      "type": "constructor"
    },
    {
      "anonymous": false,
      "inputs": [
        {
          "indexed": true,
          "internalType": "bytes32",
          "name": "id",
          "type": "bytes32"
        }
      ],
      "name": "ChainlinkCancelled",
      "type": "event"
    },
    {
      "anonymous": false,
      "inputs": [
        {
          "indexed": true,
          "internalType": "bytes32",
          "name": "id",
          "type": "bytes32"
        }
      ],
      "name": "ChainlinkFulfilled",
      "type": "event"
    },
    {
      "anonymous": false,
      "inputs": [
        {
          "indexed": true,
          "internalType": "bytes32",
          "name": "id",
          "type": "bytes32"
        }
      ],
      "name": "ChainlinkRequested",
      "type": "event"
    },
    {
      "anonymous": false,
      "inputs": [
        {
          "indexed": true,
          "internalType": "address",
          "name": "from",
          "type": "address"
        },
        {
          "indexed": true,
          "internalType": "address",
          "name": "to",
          "type": "address"
        }
      ],
      "name": "OwnershipTransferRequested",
      "type": "event"
    },
    {
      "anonymous": false,
      "inputs": [
        {
          "indexed": true,
          "internalType": "address",
          "name": "from",
          "type": "address"
        },
        {
          "indexed": true,
          "internalType": "address",
          "name": "to",
          "type": "address"
        }
      ],
      "name": "OwnershipTransferred",
      "type": "event"
    },
    {
      "inputs": [],
      "name": "acceptOwnership",
      "outputs": [],
      "stateMutability": "nonpayable",
      "type": "function"
    },
    {
      "inputs": [
        {
          "internalType": "bytes32",
          "name": "_requestId",
          "type": "bytes32"
        },
        {
          "internalType": "uint256",
          "name": "_volume",
          "type": "uint256"
        }
      ],
      "name": "fulfill",
      "outputs": [],
      "stateMutability": "nonpayable",
      "type": "function"
    },
    {
      "inputs": [
        {
          "internalType": "address",
          "name": "orgAddr",
          "type": "address"
        }
      ],
      "name": "getOrganizationDetail",
      "outputs": [
        {
          "components": [
            {
              "internalType": "string",
              "name": "name",
              "type": "string"
            },
            {
              "internalType": "bool",
              "name": "isGov",
              "type": "bool"
            },
            {
              "internalType": "uint256",
              "name": "fundSanctioned",
              "type": "uint256"
            },
            {
              "internalType": "uint256",
              "name": "fundDistributed",
              "type": "uint256"
            },
            {
              "internalType": "bool",
              "name": "isVerified",
              "type": "bool"
            }
          ],
          "internalType": "struct ScholorshipPortal.Organization",
          "name": "",
          "type": "tuple"
        }
      ],
      "stateMutability": "view",
      "type": "function"
    },
    {
      "inputs": [
        {
          "internalType": "uint256",
          "name": "_aadhar",
          "type": "uint256"
        }
      ],
      "name": "getStudentDetail",
      "outputs": [
        {
          "components": [
            {
              "internalType": "uint256",
              "name": "aadhar",
              "type": "uint256"
            },
            {
              "internalType": "uint256",
              "name": "accNum",
              "type": "uint256"
            },
            {
              "internalType": "bool",
              "name": "receivedGovScholorship",
              "type": "bool"
            },
            {
              "components": [
                {
                  "internalType": "string",
                  "name": "orgName",
                  "type": "string"
                },
                {
                  "internalType": "uint256",
                  "name": "amount",
                  "type": "uint256"
                },
                {
                  "internalType": "string",
                  "name": "txnId",
                  "type": "string"
                }
              ],
              "internalType": "struct ScholorshipPortal.Scholorship[]",
              "name": "scholorships",
              "type": "tuple[]"
            },
            {
              "internalType": "bool",
              "name": "lock",
              "type": "bool"
            }
          ],
          "internalType": "struct ScholorshipPortal.Student",
          "name": "",
          "type": "tuple"
        }
      ],
      "stateMutability": "view",
      "type": "function"
    },
    {
      "inputs": [
        {
          "internalType": "uint256",
          "name": "_aadhar",
          "type": "uint256"
        }
      ],
      "name": "lockProfile",
      "outputs": [],
      "stateMutability": "nonpayable",
      "type": "function"
    },
    {
      "inputs": [],
      "name": "owner",
      "outputs": [
        {
          "internalType": "address",
          "name": "",
          "type": "address"
        }
      ],
      "stateMutability": "view",
      "type": "function"
    },
    {
      "inputs": [
        {
          "internalType": "string",
          "name": "_name",
          "type": "string"
        },
        {
          "internalType": "bool",
          "name": "_isgov",
          "type": "bool"
        },
        {
          "internalType": "uint256",
          "name": "_fs",
          "type": "uint256"
        }
      ],
      "name": "registerOrganization",
      "outputs": [],
      "stateMutability": "nonpayable",
      "type": "function"
    },
    {
      "inputs": [
        {
          "internalType": "uint256",
          "name": "_aadhar",
          "type": "uint256"
        },
        {
          "internalType": "uint256",
          "name": "_accNum",
          "type": "uint256"
        }
      ],
      "name": "registerStudent",
      "outputs": [],
      "stateMutability": "nonpayable",
      "type": "function"
    },
    {
      "inputs": [
        {
          "internalType": "address",
          "name": "",
          "type": "address"
        }
      ],
      "name": "registeredOrganizations",
      "outputs": [
        {
          "internalType": "string",
          "name": "name",
          "type": "string"
        },
        {
          "internalType": "bool",
          "name": "isGov",
          "type": "bool"
        },
        {
          "internalType": "uint256",
          "name": "fundSanctioned",
          "type": "uint256"
        },
        {
          "internalType": "uint256",
          "name": "fundDistributed",
          "type": "uint256"
        },
        {
          "internalType": "bool",
          "name": "isVerified",
          "type": "bool"
        }
      ],
      "stateMutability": "view",
      "type": "function"
    },
    {
      "inputs": [
        {
          "internalType": "uint256",
          "name": "",
          "type": "uint256"
        }
      ],
      "name": "registeredStudents",
      "outputs": [
        {
          "internalType": "uint256",
          "name": "aadhar",
          "type": "uint256"
        },
        {
          "internalType": "uint256",
          "name": "accNum",
          "type": "uint256"
        },
        {
          "internalType": "bool",
          "name": "receivedGovScholorship",
          "type": "bool"
        },
        {
          "internalType": "bool",
          "name": "lock",
          "type": "bool"
        }
      ],
      "stateMutability": "view",
      "type": "function"
    },
    {
      "inputs": [
        {
          "internalType": "address",
          "name": "to",
          "type": "address"
        }
      ],
      "name": "transferOwnership",
      "outputs": [],
      "stateMutability": "nonpayable",
      "type": "function"
    },
    {
      "inputs": [
        {
          "internalType": "string",
          "name": "",
          "type": "string"
        }
      ],
      "name": "txnDoneBy",
      "outputs": [
        {
          "internalType": "string",
          "name": "",
          "type": "string"
        }
      ],
      "stateMutability": "view",
      "type": "function"
    },
    {
      "inputs": [
        {
          "internalType": "address",
          "name": "orgAddr",
          "type": "address"
        }
      ],
      "name": "verifyOrganization",
      "outputs": [],
      "stateMutability": "nonpayable",
      "type": "function"
    },
    {
      "inputs": [
        {
          "internalType": "uint256",
          "name": "studentId",
          "type": "uint256"
        },
        {
          "internalType": "uint256",
          "name": "accno",
          "type": "uint256"
        },
        {
          "internalType": "string",
          "name": "txnId",
          "type": "string"
        }
      ],
      "name": "verifyPayment",
      "outputs": [],
      "stateMutability": "nonpayable",
      "type": "function"
    },
    {
      "inputs": [],
      "name": "volume",
      "outputs": [
        {
          "internalType": "uint256",
          "name": "",
          "type": "uint256"
        }
      ],
      "stateMutability": "view",
      "type": "function"
    },
    {
      "inputs": [],
      "name": "withdrawLink",
      "outputs": [],
      "stateMutability": "nonpayable",
      "type": "function"
    }
  ],
  "bytecode": "0x608060405260016004553480156200001657600080fd5b5033806000816200006e5760405162461bcd60e51b815260206004820152601860248201527f43616e6e6f7420736574206f776e657220746f207a65726f000000000000000060448201526064015b60405180910390fd5b600680546001600160a01b0319166001600160a01b0384811691909117909155811615620000a157620000a1816200013f565b505050620000c973326c977e6efc84e512bb9c30f76e30c160ed06fb620001ec60201b60201c565b600380546001600160a01b03191673cc79157eb46f5624204f47ab42b3906caa40eab71790557f6361393833363663633733313439353762386330313263373266303561656562600955600a6200012a670de0b6b3a764000060016200020e565b6200013691906200023c565b600a556200025f565b6001600160a01b0381163314156200019a5760405162461bcd60e51b815260206004820152601760248201527f43616e6e6f74207472616e7366657220746f2073656c66000000000000000000604482015260640162000065565b600780546001600160a01b0319166001600160a01b03838116918217909255600654604051919216907fed8889f560326eb138920d842192f0eb3dd22b4f139c87a2c57538e05bae127890600090a350565b600280546001600160a01b0319166001600160a01b0392909216919091179055565b60008160001904831182151516156200023757634e487b7160e01b600052601160045260246000fd5b500290565b6000826200025a57634e487b7160e01b600052601260045260246000fd5b500490565b612872806200026f6000396000f3fe608060405234801561001057600080fd5b50600436106101005760003560e01c806379ba509711610097578063c618a1e411610066578063c618a1e414610251578063d3d2a47514610268578063e5f317151461028c578063f2fde38b146102ac57600080fd5b806379ba5097146102135780638da5cb5b1461021b5780638dc654a21461023657806393d0bd8f1461023e57600080fd5b80634d92116e116100d35780634d92116e14610176578063593afa1d146101895780636d567acd1461019c578063721c522a146101af57600080fd5b80630fe0dc1714610105578063158a38251461012e5780631b75c0091461014e5780634357855e14610163575b600080fd5b610118610113366004611fec565b6102bf565b604051610125919061205d565b60405180910390f35b61014161013c3660046121c9565b61057d565b60405161012591906121fd565b61016161015c366004612210565b610622565b005b610161610171366004612210565b6106b1565b610161610184366004612232565b610780565b61016161019736600461228f565b6109a9565b6101616101aa3660046122e8565b610abf565b6101eb6101bd366004611fec565b600b6020526000908152604090208054600182015460028301546004909301549192909160ff918216911684565b6040805194855260208501939093529015159183019190915215156060820152608001610125565b610161610b61565b6006546040516001600160a01b039091168152602001610125565b610161610c0f565b61016161024c366004611fec565b610d53565b61025a60085481565b604051908152602001610125565b61027b6102763660046122e8565b610e31565b604051610125959493929190612311565b61029f61029a3660046122e8565b610eee565b604051610125919061234a565b6101616102ba3660046122e8565b611074565b6040805160a0810182526000808252602080830182905282840182905260608084015260808301829052338252600c90529190912080546102ff9061239e565b151590506103285760405162461bcd60e51b815260040161031f906123d3565b60405180910390fd5b336000908152600c602052604090206004015460ff1661035a5760405162461bcd60e51b815260040161031f90612416565b6000828152600b60209081526040808320815160a08101835281548152600182015481850152600282015460ff16151581840152600382018054845181870281018701909552808552919492936060860193909290879084015b8282101561051457838290600052602060002090600302016040518060600160405290816000820180546103e79061239e565b80601f01602080910402602001604051908101604052809291908181526020018280546104139061239e565b80156104605780601f1061043557610100808354040283529160200191610460565b820191906000526020600020905b81548152906001019060200180831161044357829003601f168201915b50505050508152602001600182015481526020016002820180546104839061239e565b80601f01602080910402602001604051908101604052809291908181526020018280546104af9061239e565b80156104fc5780601f106104d1576101008083540402835291602001916104fc565b820191906000526020600020905b8154815290600101906020018083116104df57829003601f168201915b505050505081525050815260200190600101906103b4565b505050908252506004919091015460ff16151560209091015280519091506105775760405162461bcd60e51b81526020600482015260166024820152751cdd1d59195b9d08191bd95cc81b9bdd08195e1a5cdd60521b604482015260640161031f565b92915050565b8051602081830181018051600d82529282019190930120915280546105a19061239e565b80601f01602080910402602001604051908101604052809291908181526020018280546105cd9061239e565b801561061a5780601f106105ef5761010080835404028352916020019161061a565b820191906000526020600020905b8154815290600101906020018083116105fd57829003601f168201915b505050505081565b6000828152600b60205260409020541561067e5760405162461bcd60e51b815260206004820152601a60248201527f73747564656e7420616c72656164792072656769737465726564000000000000604482015260640161031f565b6000828152600b60205260409020918255600182015560028101805460ff19908116909155600490910180549091169055565b60008281526005602052604090205482906001600160a01b0316331461072a5760405162461bcd60e51b815260206004820152602860248201527f536f75726365206d75737420626520746865206f7261636c65206f6620746865604482015267081c995c5d595cdd60c21b606482015260840161031f565b60008181526005602052604080822080546001600160a01b03191690555182917f7cc135e0cebb02c3480ae5d74d377283180a2601f8f644edf7987b009316c63a91a2600882905561077b82611085565b505050565b336000908152600c60205260409020805461079a9061239e565b151590506107ba5760405162461bcd60e51b815260040161031f906123d3565b336000908152600c602052604090206004015460ff166107ec5760405162461bcd60e51b815260040161031f90612416565b600d816040516107fc9190612457565b908152602001604051809103902080546108159061239e565b1590506108705760405162461bcd60e51b8152602060048201526024808201527f74686973207472616e73616374696f6e2068617320616c7265616479206f63636044820152631d5c995960e21b606482015260840161031f565b6000838152600b60205260409020546108db5760405162461bcd60e51b815260206004820152602760248201527f73747564656e74206973206e6f742072656769737465726564206f6e20746865604482015266081c1bdc9d185b60ca1b606482015260840161031f565b336000908152600c602052604090206001015460ff1615610973576000838152600b602052604090206002015460ff16156109735760405162461bcd60e51b815260206004820152603260248201527f73747564656e742068617320616c726561647920726563656976656420676f76604482015271065726d656e74207363686f6c6f72736869760741b606482015260840161031f565b600e80546001600160a01b03191633179055600f839055805161099d906010906020840190611e9d565b5061077b8184846113ac565b336000908152600c6020526040902080546109c39061239e565b159050610a275760405162461bcd60e51b815260206004820152602c60248201527f6f7267616e697a6174696f6e207769746820746869732061646472657373206160448201526b1b1c9958591e48195e1a5cdd60a21b606482015260840161031f565b6040805160a08101825284815283151560208083019190915281830184905260006060830181905260808301819052338152600c8252929092208151805192938493610a769284920190611e9d565b50602082015160018201805491151560ff199283161790556040830151600283015560608301516003830155608090920151600490910180549115159190921617905550505050565b610ac76114ab565b6001600160a01b0381166000908152600c602052604090208054610aea9061239e565b15159050610b3a5760405162461bcd60e51b815260206004820152601a60248201527f6e6f2073756368206f7267616e697a6174696f6e206578697374000000000000604482015260640161031f565b6001600160a01b03166000908152600c60205260409020600401805460ff19166001179055565b6007546001600160a01b03163314610bb45760405162461bcd60e51b815260206004820152601660248201527526bab9ba10313290383937b837b9b2b21037bbb732b960511b604482015260640161031f565b600680546001600160a01b0319808216339081179093556007805490911690556040516001600160a01b03909116919082907f8be0079c531659141344cd1fd0a4f28419497f9722a3daafe3b4186f6b6457e090600090a350565b610c176114ab565b6000610c2b6002546001600160a01b031690565b6040516370a0823160e01b81523060048201529091506001600160a01b0382169063a9059cbb90339083906370a0823190602401602060405180830381865afa158015610c7c573d6000803e3d6000fd5b505050506040513d601f19601f82011682018060405250810190610ca09190612473565b6040516001600160e01b031960e085901b1681526001600160a01b03909216600483015260248201526044016020604051808303816000875af1158015610ceb573d6000803e3d6000fd5b505050506040513d601f19601f82011682018060405250810190610d0f919061248c565b610d505760405162461bcd60e51b81526020600482015260126024820152712ab730b13632903a37903a3930b739b332b960711b604482015260640161031f565b50565b336000908152600c602052604090208054610d6d9061239e565b15159050610d8d5760405162461bcd60e51b815260040161031f906123d3565b336000908152600c602052604090206004015460ff16610dbf5760405162461bcd60e51b815260040161031f90612416565b6000818152600b6020526040902054610e135760405162461bcd60e51b81526020600482015260166024820152751cdd1d59195b9d08191bd95cc81b9bdd08195e1a5cdd60521b604482015260640161031f565b6000908152600b60205260409020600401805460ff19166001179055565b600c60205260009081526040902080548190610e4c9061239e565b80601f0160208091040260200160405190810160405280929190818152602001828054610e789061239e565b8015610ec55780601f10610e9a57610100808354040283529160200191610ec5565b820191906000526020600020905b815481529060010190602001808311610ea857829003601f168201915b505050600184015460028501546003860154600490960154949560ff9283169591945092501685565b610f246040518060a001604052806060815260200160001515815260200160008152602001600081526020016000151581525090565b6001600160a01b0382166000908152600c6020526040808220815160a08101909252805482908290610f559061239e565b80601f0160208091040260200160405190810160405280929190818152602001828054610f819061239e565b8015610fce5780601f10610fa357610100808354040283529160200191610fce565b820191906000526020600020905b815481529060010190602001808311610fb157829003601f168201915b5050509183525050600182015460ff90811615156020830152600283015460408301526003830154606083015260049092015490911615156080909101528051519091506105775760405162461bcd60e51b815260206004820152602d60248201527f6f7267616e697a6174696f6e207769746820746869732061646472657373206460448201526c1bd95cc81b9bdd08195e1a5cdd609a1b606482015260840161031f565b61107c6114ab565b610d5081611500565b600081116110cb5760405162461bcd60e51b815260206004820152601360248201527234b73b30b634b2103a3930b739b0b1ba34b7b760691b604482015260640161031f565b600e546001600160a01b03166000908152600c60205260408120600381015460028201549192916110fc91906124bf565b9050600061110a84836124bf565b101561116f5760405162461bcd60e51b815260206004820152602e60248201527f796f7520646f6e7420656e6f7567682066756e64732c7468757320696e76616c60448201526d34b2103a3930b739b0b1ba34b7b760911b606482015260840161031f565b8282600301600082825461118391906124d6565b90915550506040518290600d9061119c906010906124ee565b90815260200160405180910390209080546111b69061239e565b6111c1929190611f21565b50600f546000908152600b60209081526040808320600e546001600160a01b03168452600c9092529091206001015460ff16156112165760028101805460ff1990811660011790915560048201805490911690555b600060405180606001604052808560000180546112329061239e565b80601f016020809104026020016040519081016040528092919081815260200182805461125e9061239e565b80156112ab5780601f10611280576101008083540402835291602001916112ab565b820191906000526020600020905b81548152906001019060200180831161128e57829003601f168201915b50505050508152602001868152602001601080546112c89061239e565b80601f01602080910402602001604051908101604052809291908181526020018280546112f49061239e565b80156113415780601f1061131657610100808354040283529160200191611341565b820191906000526020600020905b81548152906001019060200180831161132457829003601f168201915b50505091909252505060038084018054600181018255600091825260209182902084518051959650869592909402019261137f928492910190611e9d565b506020828101516001830155604083015180516113a29260028501920190611e9d565b5050505050505050565b60006113c260095430634357855e60e01b6115ab565b90506000846113d0846115d0565b6113d9866115d0565b6040516020016113eb9392919061258a565b60408051601f19818403018152828201909152600382526219d95d60ea1b6020830152915061141c9083908361166c565b61146b604051806040016040528060048152602001630e0c2e8d60e31b81525060405180604001604052806006815260200165185b5bdd5b9d60d21b8152508461166c9092919063ffffffff16565b60408051808201909152600581526474696d657360d81b60208201526001906114969084908361168a565b6114a283600a546116a8565b50505050505050565b6006546001600160a01b031633146114fe5760405162461bcd60e51b815260206004820152601660248201527527b7363c9031b0b63630b1363290313c9037bbb732b960511b604482015260640161031f565b565b6001600160a01b0381163314156115595760405162461bcd60e51b815260206004820152601760248201527f43616e6e6f74207472616e7366657220746f2073656c66000000000000000000604482015260640161031f565b600780546001600160a01b0319166001600160a01b03838116918217909255600654604051919216907fed8889f560326eb138920d842192f0eb3dd22b4f139c87a2c57538e05bae127890600090a350565b6115b3611f9c565b6115bb611f9c565b6115c7818686866116c9565b95945050505050565b606060006115dd8361170f565b60010190506000816001600160401b038111156115fc576115fc612127565b6040519080825280601f01601f191660200182016040528015611626576020820181803683370190505b5090508181016020015b600019016f181899199a1a9b1b9c1cb0b131b232b360811b600a86061a8153600a850494508461165f57611664565b611630565b509392505050565b608083015161167b90836117e7565b608083015161077b90826117e7565b608083015161169990836117e7565b608083015161077b90826117fe565b6003546000906116c2906001600160a01b03168484611861565b9392505050565b6116d1611f9c565b6116e185608001516101006118f4565b50508284526001600160a01b03821660208501526001600160e01b031981166040850152835b949350505050565b60008072184f03e93ff9f4daa797ed6e38ed64bf6a1f0160401b831061174e5772184f03e93ff9f4daa797ed6e38ed64bf6a1f0160401b830492506040015b6d04ee2d6d415b85acef8100000000831061177a576d04ee2d6d415b85acef8100000000830492506020015b662386f26fc10000831061179857662386f26fc10000830492506010015b6305f5e10083106117b0576305f5e100830492506008015b61271083106117c457612710830492506004015b606483106117d6576064830492506002015b600a83106105775760010192915050565b6117f48260038351611959565b61077b8282611a66565b67ffffffffffffffff1981121561181d576118198282611a8d565b5050565b6001600160401b03811315611836576118198282611acf565b6000811261184a5761181982600083611959565b61181982600161185c8460001961263d565b611959565b6004546000906118728160016124d6565b600455835160408086015160808701515191516000936320214ca360e11b936118aa9386938493923092918a9160019160240161267c565b60408051601f198184030181529190526020810180516001600160e01b03166001600160e01b03199093169290921790915290506118ea86838684611af2565b9695505050505050565b6040805180820190915260608152600060208201526119146020836126e4565b1561193c576119246020836126e4565b61192f9060206124bf565b61193990836124d6565b91505b506020828101829052604080518085526000815290920101905290565b6017816001600160401b0316116119835761197d8360e0600585901b168317611c50565b50505050565b60ff816001600160401b0316116119bf576119a9836018611fe0600586901b1617611c50565b5061197d836001600160401b0383166001611c75565b61ffff816001600160401b0316116119fc576119e6836019611fe0600586901b1617611c50565b5061197d836001600160401b0383166002611c75565b63ffffffff816001600160401b031611611a3b57611a2583601a611fe0600586901b1617611c50565b5061197d836001600160401b0383166004611c75565b611a5083601b611fe0600586901b1617611c50565b5061197d836001600160401b0383166008611c75565b6040805180820190915260608152600060208201526116c283846000015151848551611c9b565b611a988260c3611c50565b5061181982611aa98360001961263d565b604051602001611abb91815260200190565b604051602081830303815290604052611d85565b611ada8260c2611c50565b506118198282604051602001611abb91815260200190565b6040516bffffffffffffffffffffffff193060601b1660208201526034810184905260009060540160408051808303601f1901815282825280516020918201206000818152600590925291812080546001600160a01b0319166001600160a01b038a1617905590925082917fb5e6e01e79f91267dc17b4e6314d5d4d03593d2ceee0fbb452b750bd70ea5af99190a2600254604051630200057560e51b81526001600160a01b0390911690634000aea090611bb590889087908790600401612706565b6020604051808303816000875af1158015611bd4573d6000803e3d6000fd5b505050506040513d601f19601f82011682018060405250810190611bf8919061248c565b6117075760405162461bcd60e51b815260206004820152602360248201527f756e61626c6520746f207472616e73666572416e6443616c6c20746f206f7261604482015262636c6560e81b606482015260840161031f565b6040805180820190915260608152600060208201526116c28384600001515184611d92565b604080518082019091526060815260006020820152611707848560000151518585611dee565b6040805180820190915260608152600060208201528251821115611cbe57600080fd5b6020850151611ccd83866124d6565b1115611d0057611d0085611cf087602001518786611ceb91906124d6565b611e6f565b611cfb90600261272d565b611e86565b600080865180518760208301019350808887011115611d1f5787860182525b505050602084015b60208410611d5f5780518252611d3e6020836124d6565b9150611d4b6020826124d6565b9050611d586020856124bf565b9350611d27565b51815160001960208690036101000a019081169019919091161790525083949350505050565b6117f48260028351611959565b60408051808201909152606081526000602082015283602001518310611dc757611dc78485602001516002611cfb919061272d565b835180516020858301018481535080851415611de4576001810182525b5093949350505050565b6040805180820190915260608152600060208201526020850151611e1285846124d6565b1115611e2657611e2685611cf086856124d6565b60006001611e3684610100612830565b611e4091906124bf565b9050855183868201018583198251161781525080518487011115611e645783860181525b509495945050505050565b600081831115611e80575081610577565b50919050565b8151611e9283836118f4565b5061197d8382611a66565b828054611ea99061239e565b90600052602060002090601f016020900481019282611ecb5760008555611f11565b82601f10611ee457805160ff1916838001178555611f11565b82800160010185558215611f11579182015b82811115611f11578251825591602001919060010190611ef6565b50611f1d929150611fd7565b5090565b828054611f2d9061239e565b90600052602060002090601f016020900481019282611f4f5760008555611f11565b82601f10611f605780548555611f11565b82800160010185558215611f1157600052602060002091601f016020900482015b82811115611f11578254825591600101919060010190611f81565b6040805160a0810182526000808252602080830182905282840182905260608084018390528451808601909552845283015290608082015290565b5b80821115611f1d5760008155600101611fd8565b600060208284031215611ffe57600080fd5b5035919050565b60005b83811015612020578181015183820152602001612008565b8381111561197d5750506000910152565b60008151808452612049816020860160208601612005565b601f01601f19169290920160200192915050565b6000602080835260c08301845182850152818501516040818187015280870151915060608215158188015280880151925060a0608088015283835180865260e08901915060e08160051b8a01019550868501945060005b8181101561210c5789870360df19018352855180518589526120d8868a0182612031565b828b01518a8c015291870151898303888b01529190506120f88183612031565b9850505094870194918701916001016120b4565b5050505050506080850151915061170760a085018315159052565b634e487b7160e01b600052604160045260246000fd5b600082601f83011261214e57600080fd5b81356001600160401b038082111561216857612168612127565b604051601f8301601f19908116603f0116810190828211818310171561219057612190612127565b816040528381528660208588010111156121a957600080fd5b836020870160208301376000602085830101528094505050505092915050565b6000602082840312156121db57600080fd5b81356001600160401b038111156121f157600080fd5b6117078482850161213d565b6020815260006116c26020830184612031565b6000806040838503121561222357600080fd5b50508035926020909101359150565b60008060006060848603121561224757600080fd5b833592506020840135915060408401356001600160401b0381111561226b57600080fd5b6122778682870161213d565b9150509250925092565b8015158114610d5057600080fd5b6000806000606084860312156122a457600080fd5b83356001600160401b038111156122ba57600080fd5b6122c68682870161213d565b93505060208401356122d781612281565b929592945050506040919091013590565b6000602082840312156122fa57600080fd5b81356001600160a01b03811681146116c257600080fd5b60a08152600061232460a0830188612031565b951515602083015250604081019390935260608301919091521515608090910152919050565b602081526000825160a0602084015261236660c0840182612031565b905060208401511515604084015260408401516060840152606084015160808401526080840151151560a08401528091505092915050565b600181811c908216806123b257607f821691505b60208210811415611e8057634e487b7160e01b600052602260045260246000fd5b60208082526023908201527f796f7572206f7267616e697a6174696f6e206973206e6f7420726567697374656040820152621c995960ea1b606082015260800190565b60208082526021908201527f796f7572206f7267616e697a6174696f6e206973206e6f7420766572696669656040820152601960fa1b606082015260800190565b60008251612469818460208701612005565b9190910192915050565b60006020828403121561248557600080fd5b5051919050565b60006020828403121561249e57600080fd5b81516116c281612281565b634e487b7160e01b600052601160045260246000fd5b6000828210156124d1576124d16124a9565b500390565b600082198211156124e9576124e96124a9565b500190565b600080835481600182811c91508083168061250a57607f831692505b602080841082141561252a57634e487b7160e01b86526022600452602486fd5b81801561253e576001811461254f5761257c565b60ff1986168952848901965061257c565b60008a81526020902060005b868110156125745781548b82015290850190830161255b565b505084890196505b509498975050505050505050565b7f68747470733a2f2f7472616e73616374696f6e2d7665726966792e6f6e72656e8152726465722e636f6d2f7665726966793f74786e3d60681b6020820152600084516125de816033850160208901612005565b68266163636f756e743d60b81b603391840191820152845161260781603c840160208901612005565b67266161646861723d60c01b603c92909101918201528351612630816044840160208801612005565b0160440195945050505050565b60008083128015600160ff1b85018412161561265b5761265b6124a9565b6001600160ff1b0384018313811615612676576126766124a9565b50500390565b6001600160a01b0389811682526020820189905260408201889052861660608201526001600160e01b03198516608082015260a0810184905260c0810183905261010060e082018190526000906126d583820185612031565b9b9a5050505050505050505050565b60008261270157634e487b7160e01b600052601260045260246000fd5b500690565b60018060a01b03841681528260208201526060604082015260006115c76060830184612031565b6000816000190483118215151615612747576127476124a9565b500290565b600181815b8085111561278757816000190482111561276d5761276d6124a9565b8085161561277a57918102915b93841c9390800290612751565b509250929050565b60008261279e57506001610577565b816127ab57506000610577565b81600181146127c157600281146127cb576127e7565b6001915050610577565b60ff8411156127dc576127dc6124a9565b50506001821b610577565b5060208310610133831016604e8410600b841016171561280a575081810a610577565b612814838361274c565b8060001904821115612828576128286124a9565b029392505050565b60006116c2838361278f56fea2646970667358221220141ad71a9d8ba4c19cdd20db424c686ac21639657403de5d7d89531d1e95fb7f64736f6c634300080c0033",
  "linkReferences": {},
  "deployedLinkReferences": {}
}